:020000040800F2
:10000000800F002049020008C91900080D190008D6
:10001000C5190008F90500081921000800000000B2
:10002000000000000000000000000000E91F0008C0
:10003000FD05000800000000391A000841200008F2
:1000400063020008630200086302000863020008FC
:1000500063020008630200086302000863020008EC
:1000600063020008630200086302000863020008DC
:1000700063020008630200086302000863020008CC
:1000800063020008630200086302000863020008BC
:1000900063020008630200086302000863020008AC
:1000A000630200086302000863020008630200089C
:1000B000630200086302000863020008630200088C
:1000C000630200086302000863020008630200087C
:1000D000630200086302000863020008630200086C
:1000E000630200086302000863020008630200085C
:1000F000630200086302000863020008630200084C
:10010000630200086302000863020008630200083B
:10011000630200086302000863020008630200082B
:10012000630200086302000863020008630200081B
:10013000630200086302000863020008630200080B
:1001400063020008630200086302000863020008FB
:1001500063020008630200086302000863020008EB
:1001600063020008630200086302000863020008DB
:100170006302000863020008630200080000000038
:10018000630200086302000800F002F800F04CF877
:100190000AA090E8000C82448344AAF10107DA45E2
:1001A00001D100F041F8AFF2090EBAE80F0013F0E8
:1001B000010F18BFFB1A43F001031847F427000092
:1001C000142800000A4410F8014B14F00F0508BF72
:1001D00010F8015B240908BF10F8014B6D1E05D013
:1001E00010F8013B6D1E01F8013BF9D1641E03D0EC
:1001F000641E01F8015BFBD19142E4D3704700001B
:100200000023002400250026103A28BF78C1FBD81F
:10021000520728BF30C148BF0B6070471FB502F0BE
:1002200076FB1FBD10B510BD00F04BF91146FFF76E
:10023000F5FF02F0DDFA00F069F903B4FFF7F2FF11
:1002400003BC00F071F900000948804709480047E5
:10025000FEE7FEE7FEE7FEE7FEE7FEE7FEE7FEE776
:10026000FEE7FEE704480549054A064B70470000D3
:10027000052100088901000880090020800F002066
:10028000800B0020800B002053EA020C00F06980F4
:100290002DE9F04B4FF00006002B1FBFB3FA83F59A
:1002A00003FA05F424FA05F65E4012BF1643B2FACB
:1002B00082F502FA05F4C5F120051EBF22FA05FCFD
:1002C00044EA0C04203556EA044C4FEA144418BFA3
:1002D000641C4FF000084FF00009904271EB030CD2
:1002E00039D3002919BFB1FA81F701FA07F6B0FA3C
:1002F00080F700FA07F6C7F120071EBF20FA07FCB7
:1003000046EA0C062037B6FBF4FCA7EB0507103FC6
:1003100007F01F0BCBF120062CFA06F60CFA0BFBAC
:1003200044BFB3460026202FA4BF5E464FF0000B0B
:100330005BEA060C08BF4FF0010B19EB0B0948EB09
:100340000608ABFB027C06FB02CC0BFB03CCC01BFC
:1003500071EB0C01C1E70B46024641464846BDE839
:10036000F08B13B5084318BF4FF0FF300146AFF3D1
:100370000080BDE81C407047002800DA404270470A
:10038000032A40F2308010F0030C00F0158011F8C1
:10039000013BBCF1020F624498BF11F801CB00F899
:1003A000013B38BF11F8013BA2F1040298BF00F8ED
:1003B00001CB38BF00F8013B11F0030300F04F8080
:1003C000083AC0F0088051F8043B083A51F804CBD1
:1003D000A0E80810F5E7121D5CBF51F8043B40F897
:1003E000043BAFF30080D20724BF11F8013B11F8A2
:1003F00001CB48BF11F8012B24BF00F8013B00F8E6
:1004000001CB48BF00F8012B70474FF0000200B548
:10041000134694469646203922BFA0E80C50A0E827
:100420000C50B1F12001BFF4F7AF090728BFA0E8D5
:100430000C5048BF0CC05DF804EB890028BF40F8A1
:10044000042B08BF704748BF20F8022B11F0804FE3
:1004500018BF00F8012B704770477047704710B500
:10046000203AC0F00B80B1E81850A0E81850B1E86D
:100470001850A0E81850203ABFF4F5AF5FEA027CAC
:1004800024BFB1E81850A0E8185044BF18C918C0DC
:10049000BDE810405FEA827C24BF51F8043B40F87D
:1004A000043B08BF7047D20728BF31F8023B48BF62
:1004B00011F8012B28BF20F8023B48BF00F8012BA0
:1004C0007047754600F02CF8AE4605006946534665
:1004D00020F00700854618B020B5FFF7C3FEBDE841
:1004E00020404FF000064FF000074FF000084FF09B
:1004F000000BAC46ACE8C009ACE8C009ACE8C009E8
:10050000ACE8C00921F007018D46704710B50446DC
:10051000AFF300802046BDE81040FFF78EBE00001C
:1005200000487047C808002001491820ABBEFEE70C
:10053000260002007047000010B58CB0FFE700F005
:100540005DFA44F6D351C1F262010791A0FB01109C
:10055000800948F68901C8F68801A0FB01125109FB
:100560000901A1EB5211A0EB8100099000F046FABD
:1005700002460798A2FB001080094FF47A71069199
:1005800000FB11200A9000F03FFA069902460798F6
:10059000A2FB0030800900FB11200B9000F02EFA26
:1005A000089000F031FADDF820C0099A0A9B8646CF
:1005B0000B9842F69F14C0F6000469464C61C1F8DE
:1005C00010E0C1F80CC042F6971CC0F6000CC1F850
:1005D00008C042F6A31CC0F6000CC1F804C00860B5
:1005E00042F66B11C0F60001002001F0A7FA0120CD
:1005F00000F00EF8A3E70000FFE7FEE770470000F9
:1006000081B0EFF3108072B60090FFE7FEE70000C4
:1006100080B584B0039000F0F1F902900398019046
:100620000198013008B1FFE7FFE7FFE700F0E6F9C6
:100630000299401A0199884201D2FFE7F6E704B017
:1006400080BD00008EB00D900C9100200A900990A2
:1006500008900B90FFE70B980F2800F2CC81FFE782
:100660000B99012088400A900C9800680A9908406C
:10067000099009980A99884240F0B881FFE70C98E0
:10068000406800F00300012807D0FFE70C9840689D
:1006900000F0030002282FD1FFE70D988068089032
:1006A0000B984100032000FA01F108988843089054
:1006B0000C98C0680B99490000FA01F108980843AA
:1006C000089008980D9988600D98406808900B99DB
:1006D000012000FA01F10898884308900C984068BE
:1006E000C0F300100B9900FA01F108980843089034
:1006F00008980D994860FFE70C98406800F00300E7
:10070000032818D0FFE70D98C06808900B984100A7
:10071000032000FA01F10898884308900C9880683B
:100720000B99490000FA01F10898084308900898CD
:100730000D99C860FFE70C98406800F0030002289C
:1007400026D1FFE70D980B996FF0030202EA5101E1
:100750000844006A08900B9800F0070081000F2001
:1007600000FA01F10898884308900C9800690B99E9
:1007700001F00701890000FA01F108980843089088
:1007800008980D990B9B02EA530211440862FFE797
:100790000D98006808900B984100032000FA01F1C1
:1007A0000898884308900C98406800F003000B9963
:1007B000490000FA01F108980843089008980D993B
:1007C00008600C9880798007002800F00E81FFE710
:1007D000FFE70020079043F64400C4F202000168DE
:1007E00041F480410160006800F480400790079860
:1007F000FFE70B9820F0030043F60801C4F2010163
:10080000405808900B9800F0030081000F2000FA78
:1008100001F10898884308900D980021C4F2020164
:10082000884203D1FFE7002006905EE00D9840F279
:100830000041C4F20201884203D1FFE70120059084
:1008400050E00D9840F60001C4F20201884203D145
:10085000FFE70220049042E00D9840F60041C4F208
:100860000201884203D1FFE70320039034E00D9892
:1008700041F20001C4F20201884203D1FFE70420E3
:10088000029026E00D9841F20041C4F20201884234
:1008900003D1FFE70520019018E00D9841F6000113
:1008A000C4F20201884203D1FFE7062000900AE06B
:1008B0000D9941F60042C4F202020820914208BF9D
:1008C00007200090FFE700980190FFE70198029051
:1008D000FFE702980390FFE703980490FFE704986E
:1008E0000590FFE705980690FFE70698C0B20B99C0
:1008F00001F00301890000FA01F10898084308900B
:1009000008980B9921F0030143F60802C4F2010292
:10091000885043F60840C4F2010000680890099925
:100920000898884308900C988079C006002805D55F
:10093000FFE70999089808430890FFE7089843F6ED
:100940000841C4F20101086043F60C40C4F2010002
:100950000068089009990898884308900C98807955
:100960008006002805D5FFE70999089808430890F4
:10097000FFE7089843F60C41C4F20101086043F612
:100980000440C4F20100006808900999089888435F
:1009900008900C9880798007002805D5FFE7099911
:1009A000089808430890FFE7089843F60441C4F20A
:1009B0000101086043F60040C4F20100006808909D
:1009C00009990898884308900C988079C00728B145
:1009D000FFE70999089808430890FFE7089843F64D
:1009E0000041C4F201010860FFE7FFE7FFE70B9851
:1009F00001300B902FE60EB07047000040F67C10DF
:100A0000C2F200000068704781B04EF21400CEF2CE
:100A1000000000680130009000984EF21801CEF2FC
:100A200000010968401A4FF47A7148430099B0FBFD
:100A3000F1F001B07047000080B58EB00C900C98BA
:100A400020B9FFE701208DF8370043E10C9890F8BA
:100A50003D0040B9FFE70C99002081F83C000C985C
:100A600000F03CF9FFE70C99242081F83D000C9838
:100A70000168086820F0010008600C9801680868A7
:100A800040F4004008600C980168086820F40040B9
:100A9000086000F04DFB0A900C98406848F2A06195
:100AA000C0F2010188420BD8FFE70A9948F2804260
:100AB000C0F21E020020914238BF012009900AE0D6
:100AC0000A9940F60012C0F23D020020914238BF60
:100AD00001200990FFE70998012804D1FFE70120D0
:100AE0008DF83700F6E00A984DF68361C4F21B31A9
:100AF000A0FB0110800C0B900C980068406820F05F
:100B00003F000B9908430C99096848600C980068ED
:100B1000006A20F03F0008900C98406848F2A061FD
:100B2000C0F20101884204D8FFE70B98013007901A
:100B30000EE00B984FF49671484344F6D351C1F23E
:100B40006201A0FB0101012000EB91100790FFE77B
:100B50000898079908430C99096808620C9800687E
:100B6000C0694CF6FF71884306900C98406848F2C3
:100B7000A061C0F2010188421FD8FFE70A9801383E
:100B80000C9949684900B0FBF1F001306FF31F3058
:100B9000032803D8FFE7042005900BE00A980138EA
:100BA0000C9949684900B0FBF1F001306FF31F3038
:100BB0000590FFE7059804904CE00C98806868B9B0
:100BC000FFE70A9801380C99496801EB4101B0FB35
:100BD000F1F001306FF31F3003900DE00A980138F7
:100BE0000C99496819225143B0FBF1F001300421FE
:100BF00061F31F300390FFE70398000518B9FFE782
:100C00000120029023E00C98806868B9FFE70A98F9
:100C100001380C99496801EB4101B0FBF1F001305A
:100C20006FF31F3001900DE00A9801380C99496864
:100C300019225143B0FBF1F00130042161F31F3060
:100C40000190FFE7019840F400400290FFE702980E
:100C50000490FFE70698049908430C990968C86155
:100C60000C980068006820F0C0000C9B1968DA69D5
:100C70001B6A1A43104308600C980068806848F2A9
:100C8000FF3188430C9A1168D36812691A431043E4
:100C900088600C980068C06820F0FF000C9B196801
:100CA0005A699B691A431043C8600C980168086828
:100CB00040F0010008600C99002008640C9A202183
:100CC00082F83D100C9908630C9981F83E008DF86C
:100CD0003700FFE79DF837000EB080BD80B588B0C3
:100CE00007900020069005900490039002900798CA
:100CF000006845F20041C4F20001884234D1FFE7A8
:100D0000FFE70020019043F63000C4F202000168C2
:100D100041F002010160006800F0020001900198BA
:100D2000FFE7C020029012200390002004900320CF
:100D300005900420069040F20040C4F2020002A98F
:100D4000FFF780FCFFE70020009043F64000C4F26C
:100D50000200016841F400110160006800F4001015
:100D600000900098FFE7FFE708B080BD40F2AC00BC
:100D7000C2F20000027840F67C11C2F2000108685D
:100D8000104408607047000080B543F60041C4F28B
:100D90000201086840F400700860086840F4806050
:100DA0000860086840F480700860032000F080F854
:100DB0000F2000F005F800F03BF8002080BD000097
:100DC00080B582B0009040F2A800C2F20000006836
:100DD00040F2AC01C2F200010A784FF47A71B1FB23
:100DE000F2F1B0FBF1F000F089FD20B1FFE7012046
:100DF0008DF8070018E000980F280DD8FFE700993C
:100E00004FF0FF30002200F039F8009840F6C001A2
:100E1000C2F20001086003E001208DF8070003E042
:100E200000208DF80700FFE79DF8070002B080BDA5
:100E300082B0FFE70020019043F64400C4F20200B4
:100E4000016841F480410160006800F48040019035
:100E50000198FFE7FFE70020009043F64000C4F24E
:100E60000200016841F080510160006800F080508C
:100E700000900098FFE702B07047000080B586B090
:100E80008DF81700049103920020029001F068FC95
:100E900002909DF91700019002980499039A00F0BE
:100EA00095FD0146019801F063FC06B080BD00008D
:100EB00080B582B00190019801F07CFC02B080BD49
:100EC00080B584B002900191029820B9FFE701201B
:100ED0008DF80F0021E1019843F60041C4F20201B0
:100EE000096801F00701884212D9FFE7019943F62A
:100EF0000040C4F202000170006800F00700019990
:100F0000884204D0FFE701208DF80F0005E1FFE7DC
:100F100002980078800700282AD5FFE70298007819
:100F20004007002809D5FFE743F60801C4F2020193
:100F3000086840F4E0500860FFE702980078000776
:100F4000002809D5FFE743F60801C4F2020108684A
:100F500040F460400860FFE743F60801C4F2020174
:100F6000086820F0F000029A926810430860FFE7DA
:100F700002980078C00700286ED0FFE7029840680A
:100F8000012811D1FFE743F60000C4F20200006817
:100F900000F400310020B0EB514F04D1FFE70120F5
:100FA0008DF80F00B9E02CE002984068022805D0C7
:100FB000FFE702984068032811D1FFE743F60000DD
:100FC000C4F20200006800F000710020B0EB516F25
:100FD00004D1FFE701208DF80F009EE010E043F6FA
:100FE0000000C4F20200006800F002010020B0EB33
:100FF000510F04D1FFE701208DF80F008DE0FFE7CE
:10100000FFE743F60801C4F20201086820F003007C
:10101000029A526810430860FFF7F0FC0090FFE767
:1010200043F60800C4F20200006800F00C000299C8
:101030004968B0EB810F0ED0FFE7FFF7DFFC0099A6
:10104000401A41F28931884204D3FFE703208DF82A
:101050000F0062E0E4E7FFE7019843F60041C4F2C5
:101060000201096801F00701884212D2FFE70199E5
:1010700043F60040C4F202000170006800F007006F
:101080000199884204D0FFE701208DF80F0044E069
:10109000FFE702980078400700280CD5FFE743F6E9
:1010A0000801C4F20201086820F4E050029AD268F4
:1010B00010430860FFE702980078000700280DD56C
:1010C000FFE743F60801C4F20201086820F460401B
:1010D000029A126940EAC2000860FFE700F03AF89D
:1010E00043F60801C4F202010968C9B20A0942F6CE
:1010F0003211C0F60001895CC84040F2A801C2F27A
:101100000001086040F6C000C2F200000068FFF76E
:1011100057FE00208DF80F00FFE79DF80F0004B088
:1011200080BD000040F2A800C2F2000000687047D5
:1011300080B5FFF7F7FF43F60801C4F20201096822
:10114000C1F3822242F64211C0F60001895CC84018
:1011500080BD000080B586B000200590049003900B
:10116000029043F60800C4F20200006800F00C0090
:101170000146019140B1FFE7019804280AD0FFE73A
:10118000019808280CD04FE042F20040C0F2F40071
:1011900002904FE041F20020C0F27A00029049E054
:1011A00043F60400C4F20200016801F03F0105911A
:1011B00000684002002813D5FFE743F60400C4F29C
:1011C00002000068C0F3881041F20021C0F27A01E9
:1011D000A0FB0101059A0023FFF756F8049012E0E6
:1011E00043F60400C4F202000068C0F3881042F223
:1011F0000041C0F2F401A0FB0101059A0023FFF7B2
:1012000043F80490FFE743F60400C4F202000068CC
:1012100000F44031022000EBD13003900498039990
:10122000B0FBF1F0029005E042F20040C0F2F400A1
:101230000290FFE7029806B080BD000080B586B03E
:101240000490049820B9FFE701208DF8170050E3BF
:1012500004980078C007002800F0A580FFE743F657
:101260000800C4F20200006800F00C00042813D04B
:10127000FFE743F60800C4F20200006800F00C002B
:1012800008281ED1FFE743F60400C4F202000068FC
:101290004002002815D5FFE743F60000C4F2020023
:1012A000006800F400310020B0EB514F08D0FFE798
:1012B0000498406820B9FFE701208DF8170018E373
:1012C00070E0FFE704984068B0F5803F09D1FFE780
:1012D00043F60001C4F20201086840F4803008605F
:1012E00020E004984068B0F5A02F0DD1FFE743F649
:1012F0000001C4F20201086840F480200860086818
:1013000040F4803008600CE043F60001C4F20201B2
:10131000086820F480300860086820F480200860A5
:10132000FFE7FFE7FFE704984068E8B1FFE7FFF752
:1013300065FB0390FFE743F60000C4F2020000687B
:1013400000F400310020B0EB514F0CD1FFE7FFF764
:1013500055FB0399401A652804D3FFE703208DF855
:101360001700C6E2E7E71CE0FFF748FB0390FFE742
:1013700043F60000C4F20200006800F400310020CF
:10138000B0EB514F0CD0FFE7FFF738FB0399401A41
:10139000652804D3FFE703208DF81700A9E2E7E7EB
:1013A000FFE7FFE7FFE7049800788007002840F197
:1013B0009680FFE743F60800C4F20200006810F0D0
:1013C0000C0F13D0FFE743F60800C4F202000068D8
:1013D00000F00C0008282CD1FFE743F60400C4F20B
:1013E000020000684002002823D4FFE743F6000013
:1013F000C4F20200006800F002010020B0EB510FBF
:1014000009D0FFE70498C068012804D0FFE7012055
:101410008DF817006DE243F60001C4F2020108687E
:1014200020F0F800049A126940EAC2000860FFE761
:1014300054E00498C06870B3FFE70021C4F247216C
:1014400001200860FFF7DAFA0390FFE743F6000097
:10145000C4F20200006800F002010020B0EB510F5E
:101460000CD1FFE7FFF7CAFA0399401A032804D307
:10147000FFE703208DF817003BE2E7E743F60001A2
:10148000C4F20201086820F0F800049A126940EAE8
:10149000C200086021E00021C4F24721002008605A
:1014A000FFF7ACFA0390FFE743F60000C4F2020036
:1014B000006800F002010020B0EB510F0CD0FFE7F4
:1014C000FFF79CFA0399401A032804D3FFE703208F
:1014D0008DF817000DE2E7E7FFE7FFE7FFE7049865
:1014E0000078000700284BD5FFE70498406918B33F
:1014F000FFE740F68061C4F2472101200860FFF752
:101500007DFA0390FFE743F67400C4F2020000681E
:1015100000F002010020B0EB510F0CD1FFE7FFF704
:101520006DFA0399401A032804D3FFE703208DF8CE
:101530001700DEE1E7E722E040F68061C4F24721D0
:1015400000200860FFF75AFA0390FFE743F67400A3
:10155000C4F20200006800F002010020B0EB510F5D
:101560000CD0FFE7FFF74AFA0399401A032804D387
:10157000FFE703208DF81700BBE1E7E7FFE7FFE790
:10158000049800784007002840F1CE80FFE7002053
:101590008DF8070043F64000C4F202000068C00066
:1015A000002815D4FFE7FFE70020009043F6400035
:1015B000C4F20200016841F080510160006800F04F
:1015C000805000900098FFE701208DF80700FFE7AA
:1015D00047F20000C4F200000068C005002822D4D1
:1015E000FFE747F20001C4F20001086840F4807090
:1015F0000860FFF703FA0390FFE747F20000C4F228
:1016000000000068C00500280CD4FFE7FFF7F6F9DA
:101610000399401A032804D3FFE703208DF817002D
:1016200067E1EAE7FFE7FFE704988068012809D14E
:10163000FFE743F67001C4F20201086840F00100C0
:1016400008601FE00498806805280DD1FFE743F685
:101650007001C4F20201086840F0040008600868E4
:1016600040F0010008600CE043F67001C4F2020192
:10167000086820F001000860086820F00400086095
:10168000FFE7FFE7FFE704988068F8B1FFE7FFF79F
:10169000B5F90390FFE743F67000C4F2020000685A
:1016A00000F002010020B0EB510F0ED1FFE7FFF771
:1016B000A5F90399401A41F28931884204D3FFE722
:1016C00003208DF8170014E1E5E71EE0FFF796F917
:1016D0000390FFE743F67000C4F20200006800F0D8
:1016E00002010020B0EB510F0ED0FFE7FFF786F9A3
:1016F0000399401A41F28931884204D3FFE703205D
:101700008DF81700F5E0E5E7FFE79DF807000128F1
:1017100009D1FFE743F64001C4F20201086820F056
:1017200080500860FFE7FFE704988069002800F018
:10173000DC80FFE743F60800C4F20200006800F016
:101740000C00082800F08580FFE7049880690228D3
:101750005CD1FFE76021C4F2472100200860FFF759
:101760004DF90390FFE743F60000C4F20200006861
:1017700000F000710020B0EB516F0CD0FFE7FFF7D5
:101780003DF90399401A032804D3FFE703208DF89D
:101790001700AEE0E7E70499C869D1F820C04B6AAA
:1017A0008A6A40EA0C0040EA8310D2034FF6FF73C6
:1017B0009A43A2F580321043C96A40EA016043F6B9
:1017C0000401C4F2020108606021C4F24721012033
:1017D0000860FFF713F90390FFE743F60000C4F237
:1017E0000200006800F000710020B0EB516F0CD1D6
:1017F000FFE7FFF703F90399401A032804D3FFE733
:1018000003208DF8170074E0E7E721E06021C4F2BF
:10181000472100200860FFF7F1F80390FFE743F647
:101820000000C4F20200006800F000710020B0EB7C
:10183000516F0CD0FFE7FFF7E1F80399401A032836
:1018400004D3FFE703208DF8170052E0E7E7FFE736
:101850004AE004988069012804D1FFE701208DF84F
:10186000170046E043F60400C4F20200006802904C
:1018700004988069012831D0FFE7029800F48000C5
:101880000499C969884229D1FFE7029800F03F0016
:101890000499096A884221D1FFE7029847F6C0718E
:1018A00008400499496AB0EB811F17D1FFE70298FD
:1018B00000F440300499896AC9034FF6FF729143DE
:1018C000A1F58031884209D1FFE7029800F07060ED
:1018D0000499C96AB0EB016F04D0FFE701208DF8CD
:1018E000170006E0FFE7FFE7FFE700208DF817008D
:1018F000FFE79DF8170006B080BD000080B582B0FC
:101900000190019800F072FB02B080BDFFE7FEE796
:1019100083B0FFE70020029043F63000C4F20200DB
:10192000016841F080010160006800F080000290D1
:101930000298FFE7FFE70020019043F63000C4F271
:101940000200016841F001010160006800F001003F
:1019500001900198FFE7FFE70020009043F6300078
:10196000C4F20200016841F002010160006800F069
:10197000020000900098FFE703B0704780B582B086
:1019800040F62810C2F20000019045F20041C4F276
:101990000001016048F2A061C0F201014160002134
:1019A0008160C1604FF48042026141618161C16127
:1019B0000162FFF741F818B1FFE7FEF721FEFFE7EC
:1019C00002B080BDFFE7FEE7FFE7FEE788B00790C3
:1019D00006910592079800F0070004900498C0F162
:1019E0000700052803D3FFE70420019004E00498D2
:1019F000C0F107000190FFE70198039004980430BC
:101A0000062803D8FFE70020009003E0049803387D
:101A10000090FFE70098029006980399012202FACD
:101A200001F101390840029B984005999A40013A1A
:101A30001140084308B070477047000080B586B079
:101A4000059004910392FFE740F20000C2F200000B
:101A5000019001980078532803D0FFE700F05EFB67
:101A6000FFE7FFE7EFF311804FF0200181F31188CA
:101A7000009005980499039A00F008F802900098E5
:101A800080F31188029806B080BD000080B58AB04E
:101A900009900891079208980490099800EB40017A
:101AA00040F20000C2F2000000EBC10018300390C9
:101AB00003984069029040B1FFE70298012819D0CD
:101AC000FFE7029802282CD032E0039800F078FB60
:101AD000059005980799884203D2FFE700200690F9
:101AE00007E00798069003980499079A00F0F2FD22
:101AF000FFE720E0039800F063FB05900598079945
:101B0000884203D2FFE70598019002E00798019010
:101B1000FFE70198069003980499069A00F0DAFD11
:101B200009E003980499079A00F062FD069002E02C
:101B300000200690FFE706980AB080BD82B080B50D
:101B400084B0079306920390029106A80090039830
:101B500002996A4600F008F80190019804B0BDE8C7
:101B6000804002B07047000080B5B6B03590349127
:101B7000339209A82D9080202E9000202F90359927
:101B800031913090FFE7349800788DF8CB0034988D
:101B9000013034909DF8CB0008B9FFE70CE29DF8C6
:101BA000CB00252840F0FB81FFE700202A90012090
:101BB0002C90FFE7349800788DF8CB009DF8CB008F
:101BC0002338014605910D2829D80599DFE801F051
:101BD0001F2727272727272717270727270F2A9871
:101BE00040F001002A903498013034901AE02A988D
:101BF00040F002002A9034980130349012E02A9884
:101C000040F004002A903498013034900AE02A9879
:101C100040F008002A9034980130349002E000200F
:101C20002C90FFE7FFE72C980028C3D1FFE70020A6
:101C30002990FFE7349800788DF8CB009DF8CB0011
:101C4000302805DBFFE79DF8CB003A2801DBFFE7F2
:101C500010E0349801303490299800EB80019DF811
:101C6000CB0000EB410030382990FFE7012000282D
:101C7000E0D1FFE700202B90349800788DF8CB005E
:101C80009DF8CB002E2825D1FFE734980130349001
:101C9000FFE7349800788DF8CB009DF8CB00302812
:101CA00005DBFFE79DF8CB003A2801DBFFE710E0FA
:101CB0003498013034902B9800EB80019DF8CB00D4
:101CC00000EB410030382B90FFE701200028E0D1E5
:101CD000FFE7FFE7349800788DF8CB00FFE79DF829
:101CE000CB006C2805D0FFE79DF8CB00682808D111
:101CF000FFE7349801303490349800788DF8CB00A9
:101D000000E004E0FFE701200028E8D1FFE79DF8AC
:101D1000CB00253801460491532800F23B810499F9
:101D2000DFE811F0CF0038013801380138013801FF
:101D300038013801380138013801380138013801DB
:101D400038013801380138013801380138013801CB
:101D500038013801380138013801380138013801BB
:101D6000380163003801D4003801380138013801E6
:101D7000380138013801380138013801380138019B
:101D80009F0038013801380138018B0038013801D3
:101D9000380138013801380138013801380138017B
:101DA000540063003801D40038013801380138018B
:101DB00038013801380138013801BE0038013801D6
:101DC0009F0038017700380138018B00339A106882
:101DD000011D116000682C902C988DF823009DF84F
:101DE00023102DA800F0C8FBD5E0339A1068011D20
:101DF000116000682C902C992B9B2998DDF8A8C0C5
:101E00006A46C2F804C010602DA80A2200F0F8F952
:101E1000C1E0339A1068011D116000682C902C9964
:101E20002B9B2998DDF8A8C06A46C2F804C0106050
:101E30002DA80A2200F0CAFAADE0339A1068011DFD
:101E4000116000682C902C992B9B2998DDF8A8C074
:101E50006A46C2F804C010602DA8102200F0B6FA3D
:101E600099E0339A1068011D116000680790FFE740
:101E7000079800788DF8CB000798013007909DF8FF
:101E8000CB0008B9FFE70AE09DF8CB102DA800F0C1
:101E900073FBFFE73098B0F1FF3FE9DCFFE77AE042
:101EA000339A1068011D116000682C902C996846C7
:101EB00000224260082303602DA8102200F086FA59
:101EC00069E02DA8252100F057FB64E0339A1068E3
:101ED000073020F0070000F10801116090ED000BC1
:101EE00051EC100B00F094FC06909DED060AB5EE47
:101EF000400AF1EE10FA05DAFFE72DA82D2100F0D7
:101F00003BFBFFE79DED060ABDEEC00A10EE100A8E
:101F1000FEF732FA2C902C992B9B2998DDF8A8C05B
:101F20006A46C2F804C010602DA803900A220292EB
:101F300000F066F903982E2100F01EFB9DED060AC5
:101F40009FED281A20EE010ABDEEC00A10EE100A1D
:101F5000FEF712FA029A014603982C91DDF8B0C000
:101F600048F21F51C5F2EB115CFB01F3591101EB73
:101F7000D371642301FB13C12C912C99299BDDF8AB
:101F8000A8E0EC46CCF804E0CCF80030022300F0E6
:101F900037F900E0FFE734980130349005E09DF810
:101FA000CB102DA800F0E8FAFFE7FFE73098B0F17A
:101FB000FF3F3FF7E8ADFFE7309801280EDBFFE772
:101FC0002F9830B1FFE735982F9A09A9FFF736FD12
:101FD000FFE72F99309808443090FFE7309836B0EB
:101FE00080BD00BF0000C8427047000080B582B0CD
:101FF000009000980138B0F1807F03D3FFE7012003
:10200000019019E0009801384EF21401CEF200015F
:1020100008604FF0FF300F2100F0AAFB4EF21801CC
:10202000CEF20001002008604EF21002CEF2000253
:10203000072111600190FFE7019802B080BD000008
:1020400080B5FEF793FE80BD80B594B008A830211E
:10205000FEF7DBF9002007900690059004900390AE
:10206000FFE70020029043F64000C4F2020001683E
:1020700041F080510160006800F0805002900298A9
:10208000FFE7FFE70020019047F20000C4F20000E4
:10209000016841F480410160006800F480400190D3
:1020A0000198FFE7012008904FF480300990022149
:1020B0000E914FF480000F9004201090A8221192EE
:1020C0001291139008A8FFF7B9F818B1FFE7FEF7CF
:1020D00097FAFFE70F20039002200490002005905C
:1020E0004FF4A05006904FF48050079003A80521AC
:1020F000FEF7E6FE18B1FFE7FEF782FAFFE714B03D
:1021000080BD00004EF68851CEF20001086840F410
:102110007000086070470000FFE7FEE780B582B0FE
:1021200040F20000C2F2000001900198A821FEF7E1
:102130006CF901990320086101994861019842F600
:10214000A411C0F600018161019A40F2C000C2F200
:102150000000D061019A4FF400601062019A0020E3
:102160009062019A5062019AD062019A1166019AB6
:1021700040F2B001C2F200015166019A102191664D
:10218000019908670199C86601994867BFF35F8F95
:102190000090FFE700980F280ED8FFE7009A42F65C
:1021A0004A10C0F60000801AC07B01998854FFE7EE
:1021B000009801300090EDE7BFF35F8F02B080BD63
:1021C00084B003900398006902900398C06801905E
:1021D00002980199884209D8FFE70398806801991D
:1021E000401A029908440138009005E002990198CC
:1021F000C04308440090FFE7009804B07047000017
:1022000010B58CB0DDF83CC0DDF838C00B900A91F9
:10221000099208930A98B0F1FF3F04DCFFE70A989F
:102220004042059002E00A980590FFE70598069065
:1022300001200790FFE706980999884209DBFFE72C
:102240000698099990FBF1F00690079801300790E5
:10225000F1E708980799884203D9FFE708980790A3
:10226000FFE70E9870B1FFE70A98002806D4FFE751
:102270009DF83C004007002804D5FFE70E98013880
:102280000E90FFE79DF83C008007002803D5FFE78C
:10229000089858B3FFE79DF83C00C00730BBFFE744
:1022A0000E9810B3FFE7FFE70E990020049041B1AC
:1022B000FFE707990E9A0020914238BF0120049051
:1022C000FFE70498C00778B1FFE70E9801380E9039
:1022D0000B98202100F050F90B98C068B0F1FF3F37
:1022E00001DCFFE700E0DFE7FFE7FFE70B98C068EE
:1022F000002869D4FFE70A98B0F1FF3F08DCFFE748
:102300000A9840420A900B982D2100F035F90CE014
:102310009DF83C004007002805D5FFE70B982B21CE
:1023200000F02AF900E0FFE7FFE70B98C0680028FB
:1023300049D4FFE79DF83C00800700282ED5FFE731
:102340009DF83C00C00748BBFFE7089830BBFFE79B
:102350000E9810B3FFE7FFE70E990020039041B1FC
:10236000FFE707990E9A0020914238BF01200390A1
:10237000FFE70398C00778B1FFE70E9801380E9089
:102380000B98302100F0F8F80B98C068B0F1FF3FCF
:1023900001DCFFE700E0DFE7FFE7FFE70B98C0683D
:1023A00000280FD4FFE70B980A99099A089BDDF8DB
:1023B00038C00F9CEE46CEF80440CEF800C000F0C6
:1023C00005F8FFE7FFE7FFE70CB010BD80B58CB064
:1023D000DDF83CC0DDF838C00B900A9109920893F3
:1023E0000A980590012006900490FFE70598099946
:1023F000884209D3FFE705980999B0FBF1F00590F1
:10240000049801300490F1E708980499884203D9B0
:10241000FFE708980490FFE79DF83C00C007C0BBA9
:10242000FFE70E98A0B3FFE79DF83C008007002867
:1024300007D5FFE7089820B9FFE730208DF80F0097
:1024400003E020208DF80F00FFE7FFE70E99002042
:10245000029041B1FFE704990E9A0020914238BFE3
:1024600001200290FFE70298C00780B1FFE70E98B5
:1024700001380E900B989DF80F1000F07DF80B9826
:10248000C068B0F1FF3F01DCFFE700E0DEE7FFE7F7
:10249000FFE70B98C06800286CD4FFE7FFE70898B7
:1024A000022804D3FFE70898013808900BE00A9847
:1024B0000699B0FBF1F0079007980999884201D27C
:1024C000FFE705E0FFE70999069848430690E6E72D
:1024D000FFE70A980699B0FBF1F007900798069974
:1024E0000A9A00FB11200A900B98079A42F65B119A
:1024F000C0F60001895C00F03FF80B98C068B0F1AD
:10250000FF3F01DCFFE709E009990698B0FBF1F015
:102510000690FFE706980028DBD1FFE79DF83C0016
:10252000C00730B3FFE70E9810B3FFE7FFE70E993F
:102530000020019041B1FFE704990E9A00209142DA
:1025400038BF01200190FFE70198C00778B1FFE78D
:102550000E9801380E900B98202100F00DF80B9882
:10256000C068B0F1FF3F01DCFFE700E0DFE7FFE715
:10257000FFE7FFE70CB080BD80B584B003908DF815
:102580000B10039880680190019801300399496805
:1025900088420FD8FFE79DF80B0003990968019A5C
:1025A000885401980130039988600399C868013004
:1025B000C860FFE7039841688068884215D1FFE74B
:1025C0000398016882680069FFF738FA03998968FF
:1025D000884205D0FFE703994FF0FF30C86003E061
:1025E000039900208860FFE7FFE704B080BD00008A
:1025F00080B58AB00990089107920020059009984B
:10260000C0680390FFE70998006904900498039953
:10261000884206D9FFE704990398C043084406900E
:1026200008E0099881680398049A801AC043084416
:102630000690FFE7069809998968039A891A8842E3
:1026400003D2FFE70698019005E009988068039996
:10265000401A0190FFE70198069006980799884272
:1026600003D2FFE70698009002E007980090FFE78A
:1026700000980690099840680399084402900298CF
:102680000899069AFDF77CFE06990598084405907E
:10269000069908980844089006990798401A0790E8
:1026A0000699039808440390039809998968884219
:1026B00003D1FFE700200390FFE7BFF35F8F03988C
:1026C0000999C860FFE7079800289CD1FFE70598A3
:1026D0000AB080BD80B588B0079006910592079832
:1026E000C0680390079880680399401A0290029886
:1026F0000599884212D9FFE7079840680399084472
:10270000019001980699059AFDF73AFEBFF35F8F95
:102710000398059908440799C8601FE0029804903F
:102720000798406803990844019001980699049A13
:10273000FDF726FE05980299401A04900798406814
:10274000019001980699029A1144049AFDF718FE27
:10275000BFF35F8F04980799C860FFE708B080BD9A
:102760004EF60C50CEF200000068C0F30220704715
:1027700082B08DF8070000919DF9070000280AD467
:10278000FFE7009800019DF907104EF20042CEF2DB
:10279000000288540BE0009800019DF8071001F03A
:1027A0000F014EF61452CEF200028854FFE702B039
:1027B0007047000083B00290029800F0070000907C
:1027C0004EF60C51CEF200010868019001984FF6C8
:1027D000FF02104001900198009A40EA0220002276
:1027E000C0F2FA52104301900198086003B070479C
:1027F00080B582B000200190FEF7C6FAFFF724FCF6
:10280000FFF786F8FFF7BAF8FDF796FEFFE7FEE759
:1028100021F0004201F00043A2F16052B2F5801FA6
:1028200028BFD2F17F6C0BD95FEA001C43EAC202D9
:1028300042EB507018BF704728BF20F0010070476E
:10284000B2F5801FBCBF184670474FEA410C1CF51B
:10285000001F02D2084600F067B870B500F009F812
:1028600000000089FFF7F6BF4FF00040A0F58000A0
:1028700070470EF1020E2EF0030E5EF8046B364226
:1028800005D4012A43EB030515F5001F12D80128D2
:1028900041EB010C1CF5001F0CD80ED14FEAD17C86
:1028A0000CEB4C0C0CF1020C15F5001F08BF4CEBA7
:1028B000D37C04E04FF0080C01E04FEAD37C0CEB32
:1028C0004C0526FA05F606F00706B6F1040C06D20A
:1028D0000EEB860CBDE870404CF0010C6047DFE861
:1028E0000CF0090B02024FF00041A1F500214FF05E
:1028F000000070BD19461046012851EB010418BFB5
:10290000D4F5001484BF002001F0004170BDF1EE49
:10291000100A4FF6FF71C0F2C03120EA010040F00A
:102920004070E1EE100A7047FF2141EAD050C00527
:1029300070470000000000000000010203040607C9
:10294000080900000000010203040000000000006C
:1029500054545220524547474553003031323334A6
:1029600035363738394142434445465B2530326479
:102970003A253033643A253033645D20257325735E
:1029800048656C6C6F20576F726C64212025642041
:10299000256425730D0A005B494E464F5D3A001BC6
:1029A0005B306D005465726D696E616C00000000F3
:1029B000D029000800000020C8080000C401000859
:1029C000F0290008C8080020B8060000000200082E
:1029D00001AA05FF24F4000101FF01FF01FF01FF2F
:1029E00001FF01FF01FF0124821000000000000030
:040000050800018965
:00000001FF
