:020000040800F2
:10000000001000204902000859330008FD270008AD
:1000100055330008110F0008F13B000800000000F4
:10002000000000000000000000000000C13A0008CD
:10003000150F000800000000C9330008193B000834
:1000400063020008630200086302000863020008FC
:1000500063020008630200086302000863020008EC
:1000600063020008630200086302000863020008DC
:1000700063020008630200086302000863020008CC
:1000800063020008630200086302000863020008BC
:1000900063020008630200086302000863020008AC
:1000A000630200086302000863020008630200089C
:1000B000630200086302000863020008630200088C
:1000C000630200086302000863020008630200087C
:1000D000630200086302000863020008630200086C
:1000E000630200086302000863020008630200085C
:1000F000630200086302000863020008630200084C
:10010000630200086302000863020008630200083B
:10011000630200086302000863020008630200082B
:10012000630200086302000863020008630200081B
:10013000630200086302000863020008630200080B
:1001400063020008630200086302000863020008FB
:1001500063020008630200086302000863020008EB
:1001600063020008630200086302000863020008DB
:100170006302000863020008630200080000000038
:10018000630200086302000800F002F800F04CF877
:100190000AA090E8000C82448344AAF10107DA45E2
:1001A00001D100F041F8AFF2090EBAE80F0013F0E8
:1001B000010F18BFFB1A43F00103184790AF00006E
:1001C000B0AF00000A4410F8014B14F00F0508BF4F
:1001D00010F8015B240908BF10F8014B6D1E05D013
:1001E00010F8013B6D1E01F8013BF9D1641E03D0EC
:1001F000641E01F8015BFBD19142E4D3704700001B
:100200000023002400250026103A28BF78C1FBD81F
:10021000520728BF30C148BF0B6070471FB509F0B7
:10022000E4FE1FBD10B510BD00F0C4F91146FFF784
:10023000F5FF05F02BFD00F0E2F903B4FFF7F2FF44
:1002400003BC00F0E5F90000094880470948004771
:10025000FEE7FEE7FEE7FEE7FEE7FEE7FEE7FEE776
:10026000FEE7FEE704480549054A064B70470000D3
:10027000DD3B000889010008000A00200010002072
:10028000000C0020000C002053EA020C00F06980F2
:100290002DE9F04B4FF00006002B1FBFB3FA83F59A
:1002A00003FA05F424FA05F65E4012BF1643B2FACB
:1002B00082F502FA05F4C5F120051EBF22FA05FCFD
:1002C00044EA0C04203556EA044C4FEA144418BFA3
:1002D000641C4FF000084FF00009904271EB030CD2
:1002E00039D3002919BFB1FA81F701FA07F6B0FA3C
:1002F00080F700FA07F6C7F120071EBF20FA07FCB7
:1003000046EA0C062037B6FBF4FCA7EB0507103FC6
:1003100007F01F0BCBF120062CFA06F60CFA0BFBAC
:1003200044BFB3460026202FA4BF5E464FF0000B0B
:100330005BEA060C08BF4FF0010B19EB0B0948EB09
:100340000608ABFB027C06FB02CC0BFB03CCC01BFC
:1003500071EB0C01C1E70B46024641464846BDE839
:10036000F08B13B5084318BF4FF0FF300146AFF3D1
:100370000080BDE81C40704753EA020C23D010B542
:100380004C1084EA530404D54042C1F1000138BF47
:10039000491E1B4204D55242C3F1000338BF5B1E05
:1003A000FFF772FF14F0804F04D04042C1F100010A
:1003B00038BF491E14F0004F04D05242C3F100036D
:1003C00038BF5B1E10BD13B540424FF0000070EB0C
:1003D0000104B8BF012001F0004100281CBF6FF0EC
:1003E00000414FF0FF30AFF300801CBD002800DA61
:1003F0004042704740EA010310B59B070FD1042A21
:100400000DD310C808C9121F9C42F8D020BA19BADF
:10041000884201D9012010BD4FF0FF3010BD1AB144
:10042000D30703D0521C07E0002010BD10F8013B99
:1004300011F8014B1B1B07D110F8013B11F8014BC0
:100440001B1B01D1921EF1D1184610BD032A40F2A8
:10045000308010F0030C00F0158011F8013BBCF166
:10046000020F624498BF11F801CB00F8013B38BF7E
:1004700011F8013BA2F1040298BF00F801CB38BF8C
:1004800000F8013B11F0030300F05A80083AC0F075
:10049000088051F8043B083A51F804CBA0E8081052
:1004A000F5E7121D5CBF51F8043B40F8043BAFF385
:1004B0000080D20724BF11F8013B11F801CB48BFDF
:1004C00011F8012B24BF00F8013B00F801CB48BF15
:1004D00000F8012B70474FF0000200B51346944618
:1004E0009646203922BFA0E80C50A0E80C50B1F18C
:1004F0002001BFF4F7AF090728BFA0E80C5048BFA0
:100500000CC05DF804EB890028BF40F8042B08BF3D
:10051000704748BF20F8022B11F0804F18BF00F839
:10052000012B704770477047704710B500F03AF8DC
:10053000006810BD10B5044600F034F8046010BD2A
:1005400010B5203AC0F00B80B1E81850A0E8185060
:10055000B1E81850A0E81850203ABFF4F5AF5FEAB0
:10056000027C24BFB1E81850A0E8185044BF18C955
:1005700018C0BDE810405FEA827C24BF51F8043BFC
:1005800040F8043B08BF7047D20728BF31F8023B50
:1005900048BF11F8012B28BF20F8023B48BF00F8E4
:1005A000012B704700487047000900200048704741
:1005B000000900207546FFF7F9FFAE4605006946C1
:1005C000534620F00700854618B020B5FFF74AFED5
:1005D000BDE820404FF000064FF000074FF0000844
:1005E0004FF0000BAC46ACE8C009ACE8C009ACE881
:1005F000C009ACE8C00921F007018D46704710B56D
:100600000446AFF300802046BDE81040FFF715BE5A
:1006100001491820ABBEFEE726000200704700002B
:10062000F0B5ADF5017DFFE702F0EAFC002868D0E7
:10063000FFE700206E9002F0C9FE00F051FE44F684
:10064000D351C1F262016C91A0FB0110800948F600
:100650008901C8F68801A0FB011251090901A1EB2B
:100660005211A0EB81006D9000F03AFE6C996D9AEA
:1006700086466E98AEFB01C39B094FF47A7C03FB60
:100680001CE34EF2140ECEF2000EDEF800E00EF186
:10069000010ECDF800E2DDF800E24EF21804CEF2D1
:1006A00000042468AEEB040E0EFB0CFE809CBEFB27
:1006B000F4FECDF8FCE1DDF8FCE1AEFB0141890977
:1006C00001FB1CE14AF6E17EC0F6000EEC46CCF8D8
:1006D0000CE04AF6D97EC0F6000ECCF808E04BF2EA
:1006E0002A0EC0F6000ECCF804E0CCF800104AF652
:1006F000DF61C0F6000102F057FF6E9802F066FE5F
:1007000092E7FFE705F066FC8DF8FB019DF8FB0121
:1007100008B9FFE777E000206B9002F057FE00F089
:10072000DFFD44F6D351C1F262016991A0FB0110D3
:10073000800948F68901C8F68801A0FB0112510919
:100740000901A1EB5211A0EB81006A9000F0C8FDF5
:1007500069996A9A86466B98AEFB01C39B094FF470
:100760007A7C03FB1CE34EF2140ECEF2000EDEF890
:1007700000E00EF1010ECDF8F4E1DDF8F4E14EF207
:100780001804CEF200042468AEEB040E0EFB0CFE3F
:100790007D9CBEFBF4FECDF8F0E1DDF8F0E1AEFBB0
:1007A0000141890901FB1CE19DF8FBE14AF6E17476
:1007B000C0F60004EC46CCF81040CCF80CE04AF649
:1007C000D97EC0F6000ECCF808E04BF22A0EC0F637
:1007D000000ECCF804E0CCF800104AF60971C0F61F
:1007E000000102F0E1FE6B9802F0F0FD00F078FDF0
:1007F0007B90FFE700F074FD7B99401A132801D825
:10080000FFE7F7E77EE764207A9000207990789000
:1008100077907690FFE776987A99884280F2A48064
:10082000FFE740F66210C2F200005A9040F66411F1
:10083000C2F200015E9140F66612C2F200026292BC
:1008400002F082FB799809F05FFB02465A985B92AE
:100850000A465B9942EC101B8DED5C0BB0F9000071
:1008600009F005F841EC100B51EC100B9FED380B23
:1008700053EC102B6593649208F034FE9DED5C0BF5
:1008800041EC110B53EC112B51EC100B08F06EFDE9
:1008900041EC100B51EC100B08F036FD7990789874
:1008A00009F032FB02465E985F920A465F9942EC7D
:1008B000101B8DED600BB0F9000008F0D8FF649AB2
:1008C000659B41EC100B51EC100B08F00BFE9DEDFD
:1008D000600B41EC110B53EC112B51EC100B08F099
:1008E00045FD41EC100B51EC100B08F00DFD78901C
:1008F000779809F009FB0246629863920A46639969
:1009000042EC101B8DED660BB0F9000008F0AFFF54
:10091000649A659B41EC100B51EC100B08F0E2FD62
:100920009DED660B41EC110B53EC112B51EC100BB0
:1009300008F01CFD41EC100B51EC100B08F0E4FC2E
:100940007790FFE776980130769064E700BF00BFAC
:10095000000000000000D0400000C84200BF00BFFF
:1009600000000020DCA54C409DED790A1FED061A21
:1009700080EE010A8DED790A9DED780A80EE010A7C
:100980008DED780A9DED770A80EE010A8DED770AEC
:10099000789809F0B9FA41EC100B8DED540B77986B
:1009A00009F0B2FA9DED540B41EC110B07F00CFC71
:1009B00051EC100B1FED160B53EC102B5993589262
:1009C00008F0A8FF41EC100B51EC100B08F09CFC58
:1009D00040F6F011C2F200010860799880F0004002
:1009E00009F092FA41EC100B8DED560B9DED780A53
:1009F0009DED771A21EE011A20EE000A30EE010A71
:100A000010EE100A09F080FA41EC100B08F00CFB14
:100A1000B0EE401AF0EE601A9DED560B07F0D4FBD5
:100A2000589A599B51EC100B08F074FF41EC100BD5
:100A300051EC100B08F068FC40F6E811C2F200011E
:100A40000860FFE740F67810C2F20000139040F60D
:100A50007A11C2F20001149140F67C12C2F2000237
:100A6000169202F09FFA40F66210C2F20000229045
:100A700040F66411C2F20001239140F66612C2F200
:100A80000002259202F060FA40F6E410C2F2000083
:100A9000389040F6EC11C2F20001379140F6F8129E
:100AA000C2F200023A9205F06FF9012002F08EFCCA
:100AB00000F016FC44F6D351C1F262013591A0FB5F
:100AC0000110800948F68901C8F688013291A0FB1F
:100AD000011251090901A1EB5211A0EB81001F90F5
:100AE00000F0FEFB359984461398ACFB0132930964
:100AF0004FF47A72369203FB12C320934EF2140322
:100B0000CEF2000333931B6801337593759B4EF24D
:100B1000180CCEF2000CCDF8D0C0DCF800C0A3EB6E
:100B20000C035343DDF8D4C1B3FBFCF37493749B03
:100B3000A3FB01C1890901FB12312191B0F9000029
:100B400008F095FE41EC100B51EC100B9FEDEC0BF7
:100B500053EC102B1993189208F0C4FC0246149819
:100B600015920A46159942EC101B8DED1C0BB0F93D
:100B7000000008F07CFE189A199B41EC100B51EC18
:100B8000100B08F0AFFC0246169817920A46179908
:100B900042EC101B8DED1A0BB0F9000008F067FE57
:100BA000189A199B41EC100B51EC100B08F09AFCB1
:100BB0009DED1A1B9DED1C0B1F9A209B8C462199C5
:100BC0004CEC120B4AF6E175C0F6000568468562EA
:100BD0004AF6D974C0F6000484604BF22A0CC0F6C1
:100BE000000CCDF840C1C0F804C0016080ED082BB6
:100BF00080ED061B80ED040B4AF67B71C0F6000108
:100C00000020539002F0D0FC539802F0DFFB02204A
:100C100002F0DCFB00F064FB3299359AA0FB022065
:100C20008009A0FB011251090901A1EB5211A0EBAF
:100C300081002F9000F054FB339BDDF8D0C0359934
:100C4000369A06462298A6FB017E4FEA9E1E0EFBB0
:100C5000126ECDF8C0E01B6801337393739BDCF810
:100C600000C0A3EB0C035343DDF8CCC1B3FBFCF392
:100C70007293729BA3FB01C1890901FB1231299177
:100C8000B0F9000008F0F3FD41EC100B51EC100B33
:100C90009FED9D0B53EC102B2893279208F022FC1C
:100CA0000246239824920A46249942EC101B8DEDAB
:100CB0002C0BB0F9000008F0DAFD279A289B41ECD4
:100CC000100B51EC100B08F00DFC024625982692F3
:100CD0000A46269942EC101B8DED2A0BB0F9000054
:100CE00008F0C5FD279A289B41EC100B51EC100B26
:100CF00008F0F8FBDDF8A4C09DED2A1B9DED2C0B40
:100D00002F9A309BDDF840E10646539831960E4607
:100D1000319946EC121B69468D628C60C1F804E083
:100D2000C1F800C081ED082B81ED061B81ED040B9D
:100D30004AF6A871C0F6000102F036FC539802F0A2
:100D400045FB032002F042FB00F0CAFA3299359AC3
:100D5000A0FB02208009A0FB011251090901A1EBAF
:100D60005211A0EB81004E9000F0BAFA339BDDF8EF
:100D7000D0C03599369A06463798A6FB017E4FEAD1
:100D80009E1E0EFB126ECDF83CE11B680133719381
:100D9000719BDCF800C0A3EB0C035343DDF8C4C126
:100DA000B3FBFCF37093709BA3FB01C1890901FBAA
:100DB00012314B9190ED000A8DED3D0A10EE100AB4
:100DC00009F0A2F80246389839920A46399942EC5D
:100DD000101B8DED480B90ED000A8DED3F0A10EED3
:100DE000100A09F091F802463A983B920A463B995C
:100DF00042EC101B8DED460B006809F085F841ECC4
:100E0000100B8DED400B40F6F010C2F2000090ED9B
:100E1000000A8DED3C0A10EE100A09F075F841EC5D
:100E2000100B8DED440B40F6E810C2F2000090ED7F
:100E3000000A8DED3E0A10EE100A09F065F89DEDEE
:100E40003C1A9DED3D0A41EC120B8DED422B30EE2C
:100E5000010A10EE100A09F057F89DED3E1A9DEDBB
:100E60003F0A41EC120B8DED4C2B30EE010A10EED7
:100E7000100A09F049F89DED406B9DED425B9DED38
:100E8000444B9DED463B9DED482BDDF82CC19DED7F
:100E90004C0B4E9A4F9BDDF840E106465398519615
:100EA0000E46519946EC111B694652918D6481EDB5
:100EB000086B8C60C1F804E081ED0C5B81ED0A4B9E
:100EC00081ED063B81ED042BC1F800C081ED101BC4
:100ED00081ED0E0B4AF63971C0F6000102F064FB99
:100EE000539802F073FA00F0FBF96F90FFE700F0FF
:100EF000F7F96F99401A012801D8FFE7F7E7A1E554
:100F00006666666666663040000000000000D040FD
:100F1000FFE7FEE77047000081B0EFF3108072B684
:100F20000090FFE7FEE700008EB00D900C910020CE
:100F30000A90099008900B90FFE70B980F2800F299
:100F4000CC81FFE70B99012088400A900C9800683B
:100F50000A990840099009980A99884240F0B88196
:100F6000FFE70C98406800F00300012807D0FFE776
:100F70000C98406800F0030002282FD1FFE70D987D
:100F8000806808900B984100032000FA01F108984E
:100F9000884308900C98C0680B99490000FA01F149
:100FA00008980843089008980D9988600D98406843
:100FB00008900B99012000FA01F1089888430890E5
:100FC0000C984068C0F300100B9900FA01F10898E2
:100FD0000843089008980D994860FFE70C9840680E
:100FE00000F00300032818D0FFE70D98C0680890B0
:100FF0000B984100032000FA01F1089888430890FB
:101000000C9880680B99490000FA01F10898084390
:10101000089008980D99C860FFE70C98406800F0A8
:101020000300022826D1FFE70D980B996FF0030209
:1010300002EA51010844006A08900B9800F007008A
:1010400081000F2000FA01F10898884308900C985D
:1010500000690B9901F00701890000FA01F1089875
:101060000843089008980D990B9B02EA530211441B
:101070000862FFE70D98006808900B984100032074
:1010800000FA01F10898884308900C98406800F035
:1010900003000B99490000FA01F1089808430890F1
:1010A00008980D9908600C9880798007002800F056
:1010B0000E81FFE7FFE70020079043F64400C4F2EB
:1010C0000200016841F480410160006800F4804042
:1010D00007900798FFE70B9820F0030043F60801FC
:1010E000C4F20101405808900B9800F00300810001
:1010F0000F2000FA01F10898884308900D9800210C
:10110000C4F20201884203D1FFE7002006905EE0AE
:101110000D9840F20041C4F20201884203D1FFE77A
:101120000120059050E00D9840F60001C4F2020144
:10113000884203D1FFE70220049042E00D9840F678
:101140000041C4F20201884203D1FFE7032003906B
:1011500034E00D9841F20001C4F20201884203D14B
:10116000FFE70420029026E00D9841F20041C4F20E
:101170000201884203D1FFE70520019018E00D9895
:1011800041F60001C4F20201884203D1FFE70620C4
:1011900000900AE00D9941F60042C4F202020820D4
:1011A000914208BF07200090FFE700980190FFE7F9
:1011B00001980290FFE702980390FFE703980490DC
:1011C000FFE704980590FFE705980690FFE706986B
:1011D000C0B20B9901F00301890000FA01F10898EF
:1011E0000843089008980B9921F0030143F6080280
:1011F000C4F20102885043F60840C4F201000068BE
:10120000089009990898884308900C988079C0063E
:10121000002805D5FFE70999089808430890FFE7DB
:10122000089843F60841C4F20101086043F60C40F7
:10123000C4F2010000680890099908988843089052
:101240000C9880798006002805D5FFE70999089851
:1012500008430890FFE7089843F60C41C4F20101E7
:10126000086043F60440C4F2010000680890099940
:101270000898884308900C9880798007002805D545
:10128000FFE70999089808430890FFE7089843F694
:101290000441C4F20101086043F60040C4F20100B9
:1012A0000068089009990898884308900C988079FC
:1012B000C00728B1FFE70999089808430890FFE79D
:1012C000089843F60041C4F201010860FFE7FFE718
:1012D000FFE70B9801300B902FE60EB0704700002F
:1012E00040F6F410C2F200000068704780B58EB07E
:1012F0000C900C9820B9FFE701208DF8370043E1EE
:101300000C9890F83D0040B9FFE70C99002081F857
:101310003C000C9800F05AFCFFE70C99242081F85F
:101320003D000C980168086820F0010008600C98E6
:101330000168086840F4004008600C98016808687B
:1013400020F40040086000F06BFE0A900C984068A2
:1013500048F2A061C0F2010188420BD8FFE70A9968
:1013600048F28042C0F21E020020914238BF0120A4
:1013700009900AE00A9940F60012C0F23D020020EE
:10138000914238BF01200990FFE70998012804D154
:10139000FFE701208DF83700F6E00A984DF68361EB
:1013A000C4F21B31A0FB0110800C0B900C9800685C
:1013B000406820F03F000B9908430C990968486089
:1013C0000C980068006A20F03F0008900C98406874
:1013D00048F2A061C0F20101884204D8FFE70B98EF
:1013E000013007900EE00B984FF49671484344F695
:1013F000D351C1F26201A0FB0101012000EB911069
:101400000790FFE70898079908430C990968086254
:101410000C980068C0694CF6FF71884306900C98E0
:10142000406848F2A061C0F2010188421FD8FFE77E
:101430000A9801380C9949684900B0FBF1F0013075
:101440006FF31F30032803D8FFE7042005900BE05B
:101450000A9801380C9949684900B0FBF1F0013055
:101460006FF31F300590FFE7059804904CE00C984F
:10147000806868B9FFE70A9801380C99496801EB60
:101480004101B0FBF1F001306FF31F3003900DE02C
:101490000A9801380C99496819225143B0FBF1F0C0
:1014A0000130042161F31F300390FFE7039800052A
:1014B00018B9FFE70120029023E00C98806868B912
:1014C000FFE70A9801380C99496801EB4101B0FB2C
:1014D000F1F001306FF31F3001900DE00A980138F0
:1014E0000C99496819225143B0FBF1F001300421F5
:1014F00061F31F300190FFE7019840F40040029033
:10150000FFE702980490FFE70698049908430C99B6
:101510000968C8610C980068006820F0C0000C9B46
:101520001968DA691B6A1A43104308600C9800684E
:10153000806848F2FF3188430C9A1168D3681269B9
:101540001A43104388600C980068C06820F0FF00C0
:101550000C9B19685A699B691A431043C8600C9820
:101560000168086840F0010008600C9900200864D8
:101570000C9A202182F83D100C9908630C9981F88F
:101580003E008DF83700FFE79DF837000EB080BDB4
:1015900010B58CB0844610980F98DDF838E0CDF87F
:1015A00028C0ADF82610ADF82420ADF82230ADF8F3
:1015B0002000FFF795FE07900A9890F83D0020283C
:1015C00040F0F481FFE70A9807996A46116002210A
:1015D000C0F210010122192301F020FB20B1FFE726
:1015E00002208DF82F00E5E1FFE70A9890F83C0013
:1015F000012804D1FFE702208DF82F00DAE10A99D3
:10160000012081F83C00FFE7FFE70A9800680068C6
:10161000C00738B9FFE70A980168086840F0010080
:101620000860FFE70A980168086820F40060086015
:101630000A99222081F83D000A99402081F83E0055
:101640000A99002008640E980A994862BDF82000A3
:101650000A9948850A98408D0A9908850A990020B8
:10166000CFF6FF70C8620A98BDF82610BDF8242096
:10167000BDF82230DDF840C0079CEE46CEF80440AD
:10168000CEF800C001F0EEF820B1FFE701208DF8A0
:101690002F008FE10A98008DA0B9FFE7FFE7002037
:1016A00006900A980068406906900A980068806968
:1016B00006900698FFE70A980168086840F40070F1
:1016C00008604DE00A98008D01281AD1FFE70A98BA
:1016D0000168086820F480600860FFE7002005903A
:1016E0000A980068406905900A980068806905902A
:1016F0000598FFE70A980168086840F400700860E0
:101700002DE00A98008D02281AD1FFE70A98016897
:10171000086820F4806008600A980168086840F44E
:1017200000600860FFE7002004900A9800684069A4
:1017300004900A980068806904900498FFE70DE01F
:10174000FFE7002003900A980068406903900A9818
:101750000068806903900398FFE7FFE7FFE7FFE772
:10176000FFE70A98008D002800F00E81FFE70A9835
:10177000008D032800F2CC80FFE70A98008D012835
:101780001ED1FFE70A981099079A01F02FFB20B1AC
:10179000FFE701208DF82F000CE10A98006800692E
:1017A0000A99496A08700A99486A013048620A9998
:1017B000088D013808850A99488D01384885A6E0CA
:1017C0000A98008D02283CD1FFE70A98109B0799E0
:1017D0006A4611600421C0F20101002201F01EFAE4
:1017E00020B1FFE701208DF82F00E3E00A9801689F
:1017F000086840F4007008600A98006800690A9957
:10180000496A08700A99486A013048620A99088D45
:10181000013808850A99488D013848850A9800687A
:1018200000690A99496A08700A99486A0130486251
:101830000A99088D013808850A99488D013848852C
:1018400064E00A98109B07996A4611600421C0F26F
:101850000101002201F0E2F920B1FFE701208DF83B
:101860002F00A7E00A980168086820F480600860EB
:101870000A98006800690A99496A08700A99486AD2
:10188000013048620A99088D013808850A99488D07
:10189000013848850A98109B07996A46116004210F
:1018A000C0F20101002201F0B9F920B1FFE70120E7
:1018B0008DF82F007EE00A980168086840F40070F7
:1018C00008600A98006800690A99496A08700A99CC
:1018D000486A013048620A99088D013808850A99DA
:1018E000488D013848850A98006800690A99496A54
:1018F00008700A99486A013048620A99088D0138CF
:1019000008850A99488D01384885FFE7FFE73AE0E6
:101910000A981099079A01F069FA20B1FFE70120AF
:101920008DF82F0046E00A98006800690A99496A14
:1019300008700A99486A013048620A99088D01388E
:1019400008850A99488D013848850A9800684069D9
:1019500000F004010120B0EB910F13D1FFE70A98CA
:10196000006800690A99496A08700A99486A013052
:1019700048620A99088D013808850A99488D01380E
:101980004885FFE7FFE7ECE60A99202081F83D0053
:101990000A99002081F83E00FFE70A99002081F8AB
:1019A0003C00FFE700208DF82F0003E002208DF8B7
:1019B0002F00FFE79DF82F000CB010BD10B588B0C8
:1019C00084460C980B98DDF828E0CDF818C0ADF8E7
:1019D0001610ADF81420ADF81230ADF81000FFF776
:1019E0007FFC0390069890F83D00202840F0E680A8
:1019F000FFE7069803996A4611600221C0F21001C0
:101A00000122192301F00AF920B1FFE702208DF825
:101A10001F00D7E0FFE7069890F83C00012804D1AA
:101A2000FFE702208DF81F00CCE00699012081F825
:101A30003C00FFE7FFE7069800680068C00738B978
:101A4000FFE706980168086840F001000860FFE7BA
:101A500006980168086820F4006008600699212053
:101A600081F83D000699402081F83E00069900204B
:101A700008640A9806994862BDF8100006994885DE
:101A80000698408D0699088506990020CFF6FF70CC
:101A9000C8620698BDF81610BDF81420BDF81230C3
:101AA000DDF830C0039CEE46CEF80440CEF800C00E
:101AB00000F0CAFF20B1FFE701208DF81F0081E090
:101AC000FFE70698008D002849D0FFE706980C999B
:101AD000039A01F0EFF980B1FFE70698006C042843
:101AE00007D1FFE706980168086840F400700860B5
:101AF000FFE701208DF81F0064E006980168406A46
:101B0000007808610699486A013048620699088D94
:101B1000013808850699488D01384885069800687F
:101B2000406900F004010120B0EB910F16D1FFE7EE
:101B30000698008D90B1FFE706980168406A00782A
:101B400008610699486A013048620699088D013893
:101B500008850699488D01384885FFE7B1E7069862
:101B60000C99039A01F00EF880B1FFE70698006C1B
:101B7000042807D1FFE706980168086840F4007060
:101B80000860FFE701208DF81F001BE00698016840
:101B9000086840F4007008600699202081F83D0034
:101BA0000699002081F83E00FFE70699002081F8A1
:101BB0003C00FFE700208DF81F0003E002208DF8B5
:101BC0001F00FFE79DF81F0008B010BD80B588B06A
:101BD00007900020069005900490039002900798CB
:101BE000006845F20041C4F20001884234D1FFE7A9
:101BF000FFE70020019043F63000C4F202000168C4
:101C000041F002010160006800F0020001900198BB
:101C1000FFE7C020029012200390002004900320D0
:101C200005900420069040F20040C4F2020002A990
:101C3000FFF77AF9FFE70020009043F64000C4F276
:101C40000200016841F400110160006800F4001016
:101C500000900098FFE7FFE708B080BD40F2AC00BD
:101C6000C2F20000027840F6F411C2F200010868E6
:101C7000104408607047000080B543F60041C4F28C
:101C80000201086840F400700860086840F4806051
:101C90000860086840F480700860032000F080F855
:101CA0000F2000F005F800F03BF8002080BD000098
:101CB00080B582B0009040F2A800C2F20000006837
:101CC00040F2AC01C2F200010A784FF47A71B1FB24
:101CD000F2F1B0FBF1F000F089FD20B1FFE7012047
:101CE0008DF8070018E000980F280DD8FFE700993D
:101CF0004FF0FF30002200F039F8009840F6F8016C
:101D0000C2F20001086003E001208DF8070003E043
:101D100000208DF80700FFE79DF8070002B080BDA6
:101D200082B0FFE70020019043F64400C4F20200B5
:101D3000016841F480410160006800F48040019036
:101D40000198FFE7FFE70020009043F64000C4F24F
:101D50000200016841F080510160006800F080508D
:101D600000900098FFE702B07047000080B586B091
:101D70008DF81700049103920020029002F05CFAA3
:101D800002909DF91700019002980499039A01F0BE
:101D9000E5FA0146019802F057FA06B080BD00004E
:101DA00080B582B00190019802F070FA02B080BD57
:101DB00080B584B002900191029820B9FFE701201C
:101DC0008DF80F0021E1019843F60041C4F20201B1
:101DD000096801F00701884212D9FFE7019943F62B
:101DE0000040C4F202000170006800F00700019991
:101DF000884204D0FFE701208DF80F0005E1FFE7DE
:101E000002980078800700282AD5FFE7029800781A
:101E10004007002809D5FFE743F60801C4F2020194
:101E2000086840F4E0500860FFE702980078000777
:101E3000002809D5FFE743F60801C4F2020108684B
:101E400040F460400860FFE743F60801C4F2020175
:101E5000086820F0F000029A926810430860FFE7DB
:101E600002980078C00700286ED0FFE7029840680B
:101E7000012811D1FFE743F60000C4F20200006818
:101E800000F400310020B0EB514F04D1FFE70120F6
:101E90008DF80F00B9E02CE002984068022805D0C8
:101EA000FFE702984068032811D1FFE743F60000DE
:101EB000C4F20200006800F000710020B0EB516F26
:101EC00004D1FFE701208DF80F009EE010E043F6FB
:101ED0000000C4F20200006800F002010020B0EB34
:101EE000510F04D1FFE701208DF80F008DE0FFE7CF
:101EF000FFE743F60801C4F20201086820F003007E
:101F0000029A526810430860FFF7EAF90090FFE771
:101F100043F60800C4F20200006800F00C000299C9
:101F20004968B0EB810F0ED0FFE7FFF7D9F90099B0
:101F3000401A41F28931884204D3FFE703208DF82B
:101F40000F0062E0E4E7FFE7019843F60041C4F2C6
:101F50000201096801F00701884212D2FFE70199E6
:101F600043F60040C4F202000170006800F0070070
:101F70000199884204D0FFE701208DF80F0044E06A
:101F8000FFE702980078400700280CD5FFE743F6EA
:101F90000801C4F20201086820F4E050029AD268F5
:101FA00010430860FFE702980078000700280DD56D
:101FB000FFE743F60801C4F20201086820F460401C
:101FC000029A126940EAC2000860FFE700F03AF89E
:101FD00043F60801C4F202010968C9B20A094AF2CB
:101FE0007821C0F60001895CC84040F2A801C2F225
:101FF0000001086040F6F800C2F200000068FFF738
:1020000057FE00208DF80F00FFE79DF80F0004B089
:1020100080BD000040F2A800C2F2000000687047D6
:1020200080B5FFF7F7FF43F60801C4F20201096823
:10203000C1F382224AF28821C0F60001895CC840BF
:1020400080BD000080B586B000200590049003900C
:10205000029043F60800C4F20200006800F00C0091
:102060000146019140B1FFE7019804280AD0FFE73B
:10207000019808280CD04FE042F20040C0F2F40072
:1020800002904FE041F20020C0F27A00029049E055
:1020900043F60400C4F20200016801F03F0105911B
:1020A00000684002002813D5FFE743F60400C4F29D
:1020B00002000068C0F3881041F20021C0F27A01EA
:1020C000A0FB0101059A0023FEF7DEF8049012E060
:1020D00043F60400C4F202000068C0F3881042F224
:1020E0000041C0F2F401A0FB0101059A0023FEF7B4
:1020F000CBF80490FFE743F60400C4F20200006846
:1021000000F44031022000EBD13003900498039991
:10211000B0FBF1F0029005E042F20040C0F2F400A2
:102120000290FFE7029806B080BD000080B586B03F
:102130000490049820B9FFE701208DF8170050E3C0
:1021400004980078C007002800F0A580FFE743F658
:102150000800C4F20200006800F00C00042813D04C
:10216000FFE743F60800C4F20200006800F00C002C
:1021700008281ED1FFE743F60400C4F202000068FD
:102180004002002815D5FFE743F60000C4F2020024
:10219000006800F400310020B0EB514F08D0FFE799
:1021A0000498406820B9FFE701208DF8170018E374
:1021B00070E0FFE704984068B0F5803F09D1FFE781
:1021C00043F60001C4F20201086840F48030086060
:1021D00020E004984068B0F5A02F0DD1FFE743F64A
:1021E0000001C4F20201086840F480200860086819
:1021F00040F4803008600CE043F60001C4F20201B4
:10220000086820F480300860086820F480200860A6
:10221000FFE7FFE7FFE704984068E8B1FFE7FFF753
:102220005FF80390FFE743F60000C4F20200006885
:1022300000F400310020B0EB514F0CD1FFE7FFF765
:102240004FF80399401A652804D3FFE703208DF85F
:102250001700C6E2E7E71CE0FFF742F80390FFE74C
:1022600043F60000C4F20200006800F400310020D0
:10227000B0EB514F0CD0FFE7FFF732F80399401A4B
:10228000652804D3FFE703208DF81700A9E2E7E7EC
:10229000FFE7FFE7FFE7049800788007002840F198
:1022A0009680FFE743F60800C4F20200006810F0D1
:1022B0000C0F13D0FFE743F60800C4F202000068D9
:1022C00000F00C0008282CD1FFE743F60400C4F20C
:1022D000020000684002002823D4FFE743F6000014
:1022E000C4F20200006800F002010020B0EB510FC0
:1022F00009D0FFE70498C068012804D0FFE7012057
:102300008DF817006DE243F60001C4F2020108687F
:1023100020F0F800049A126940EAC2000860FFE762
:1023200054E00498C06870B3FFE70021C4F247216D
:1023300001200860FEF7D4FF0390FFE743F600009A
:10234000C4F20200006800F002010020B0EB510F5F
:102350000CD1FFE7FEF7C4FF0399401A032804D30A
:10236000FFE703208DF817003BE2E7E743F60001A3
:10237000C4F20201086820F0F800049A126940EAE9
:10238000C200086021E00021C4F24721002008605B
:10239000FEF7A6FF0390FFE743F60000C4F2020039
:1023A000006800F002010020B0EB510F0CD0FFE7F5
:1023B000FEF796FF0399401A032804D3FFE7032092
:1023C0008DF817000DE2E7E7FFE7FFE7FFE7049866
:1023D0000078000700284BD5FFE70498406918B340
:1023E000FFE740F68061C4F2472101200860FEF754
:1023F00077FF0390FFE743F67400C4F20200006821
:1024000000F002010020B0EB510F0CD1FFE7FEF706
:1024100067FF0399401A032804D3FFE703208DF8D0
:102420001700DEE1E7E722E040F68061C4F24721D1
:1024300000200860FEF754FF0390FFE743F67400A6
:10244000C4F20200006800F002010020B0EB510F5E
:102450000CD0FFE7FEF744FF0399401A032804D38A
:10246000FFE703208DF81700BBE1E7E7FFE7FFE791
:10247000049800784007002840F1CE80FFE7002054
:102480008DF8070043F64000C4F202000068C00067
:10249000002815D4FFE7FFE70020009043F6400036
:1024A000C4F20200016841F080510160006800F050
:1024B000805000900098FFE701208DF80700FFE7AB
:1024C00047F20000C4F200000068C005002822D4D2
:1024D000FFE747F20001C4F20001086840F4807091
:1024E0000860FEF7FDFE0390FFE747F20000C4F22C
:1024F00000000068C00500280CD4FFE7FEF7F0FEDE
:102500000399401A032804D3FFE703208DF817002E
:1025100067E1EAE7FFE7FFE704988068012809D14F
:10252000FFE743F67001C4F20201086840F00100C1
:1025300008601FE00498806805280DD1FFE743F686
:102540007001C4F20201086840F0040008600868E5
:1025500040F0010008600CE043F67001C4F2020193
:10256000086820F001000860086820F00400086096
:10257000FFE7FFE7FFE704988068F8B1FFE7FEF7A1
:10258000AFFE0390FFE743F67000C4F2020000685C
:1025900000F002010020B0EB510F0ED1FFE7FEF773
:1025A0009FFE0399401A41F28931884204D3FFE724
:1025B00003208DF8170014E1E5E71EE0FEF790FE1A
:1025C0000390FFE743F67000C4F20200006800F0D9
:1025D00002010020B0EB510F0ED0FFE7FEF780FEA6
:1025E0000399401A41F28931884204D3FFE703205E
:1025F0008DF81700F5E0E5E7FFE79DF807000128F3
:1026000009D1FFE743F64001C4F20201086820F057
:1026100080500860FFE7FFE704988069002800F019
:10262000DC80FFE743F60800C4F20200006800F017
:102630000C00082800F08580FFE7049880690228D4
:102640005CD1FFE76021C4F2472100200860FEF75B
:1026500047FE0390FFE743F60000C4F20200006863
:1026600000F000710020B0EB516F0CD0FFE7FEF7D7
:1026700037FE0399401A032804D3FFE703208DF89F
:102680001700AEE0E7E70499C869D1F820C04B6AAB
:102690008A6A40EA0C0040EA8310D2034FF6FF73C7
:1026A0009A43A2F580321043C96A40EA016043F6BA
:1026B0000401C4F2020108606021C4F24721012034
:1026C0000860FEF70DFE0390FFE743F60000C4F23A
:1026D0000200006800F000710020B0EB516F0CD1D7
:1026E000FFE7FEF7FDFD0399401A032804D3FFE737
:1026F00003208DF8170074E0E7E721E06021C4F2C1
:10270000472100200860FEF7EBFD0390FFE743F64A
:102710000000C4F20200006800F000710020B0EB7D
:10272000516F0CD0FFE7FEF7DBFD0399401A032839
:1027300004D3FFE703208DF8170052E0E7E7FFE737
:102740004AE004988069012804D1FFE701208DF850
:10275000170046E043F60400C4F20200006802904D
:1027600004988069012831D0FFE7029800F48000C6
:102770000499C969884229D1FFE7029800F03F0017
:102780000499096A884221D1FFE7029847F6C0718F
:1027900008400499496AB0EB811F17D1FFE70298FE
:1027A00000F440300499896AC9034FF6FF729143DF
:1027B000A1F58031884209D1FFE7029800F07060EE
:1027C0000499C96AB0EB016F04D0FFE701208DF8CE
:1027D000170006E0FFE7FFE7FFE700208DF817008E
:1027E000FFE79DF8170006B080BD000080B582B0FD
:1027F0000190019801F066F902B080BDFFE7FEE7A5
:1028000082B0009000980068406900F48061012067
:10281000B0EB912F1ED1FFE7009801686FF4806044
:102820004861009900200863009A202182F83D1039
:10283000009981F83E000099086C40F0040008649B
:10284000FFE70099002081F83C00FFE701208DF8A8
:10285000070003E000208DF80700FFE79DF8070060
:1028600002B0704780B586B0DDF824C0DDF820C026
:102870000490ADF80E10ADF80C20ADF80A300498B5
:102880000168086840F4806008600498016808687E
:1028900040F4807008600498089B09996A461160AA
:1028A0004FF00111002200F0B9F980B1FFE7049860
:1028B00000680068C005002805D5FFE704994FF4BB
:1028C00000700864FFE703208DF81700B7E0BDF83B
:1028D0000E0000F0FE000499096808610498089A47
:1028E000099B0221C0F2010100F0F8F920B1FFE7D5
:1028F00001208DF81700A2E0FFE700200190049866
:10290000006840690190049800688069019001980E
:10291000FFE704980899099A00F0CCFA80B1FFE724
:102920000498006C042807D1FFE704980168086840
:1029300040F400700860FFE701208DF817007EE08A
:10294000BDF80A00012806D1FFE79DF80C000499A4
:102950000968086121E09DF80D0004990968086183
:1029600004980899099A00F0A5FA80B1FFE7049845
:10297000006C042807D1FFE704980168086840F458
:1029800000700860FFE701208DF8170057E09DF800
:102990000C00049909680861FFE704980899099AEE
:1029A00000F088FA80B1FFE70498006C042807D192
:1029B000FFE704980168086840F400700860FFE7CA
:1029C00001208DF817003AE004980168086840F487
:1029D000807008600498089B09996A4611604FF05E
:1029E0000111002200F01AF980B1FFE70498006895
:1029F0000068C005002805D5FFE704994FF4007072
:102A00000864FFE703208DF8170018E09DF80E001A
:102A100040F001000499096808610498089A099B2C
:102A20000221C0F2010100F059F920B1FFE70120B5
:102A30008DF8170003E000208DF81700FFE79DF8E0
:102A4000170006B080BD000080B586B0DDF824C058
:102A5000DDF820C00490ADF80E10ADF80C20ADF8F4
:102A60000A3004980168086840F48070086004988F
:102A7000089B09996A4611604FF00111002200F08D
:102A8000CDF880B1FFE7049800680068C005002811
:102A900005D5FFE704994FF400700864FFE70320B1
:102AA0008DF8170069E0BDF80E0000F0FE000499F3
:102AB000096808610498089A099B0221C0F2010183
:102AC00000F00CF920B1FFE701208DF8170054E069
:102AD000FFE7002001900498006840690190049885
:102AE0000068806901900198FFE704980899099AA5
:102AF00000F0E0F980B1FFE70498006C042807D1EA
:102B0000FFE704980168086840F400700860FFE778
:102B100001208DF8170030E0BDF80A00012806D129
:102B2000FFE79DF80C0004990968086121E09DF811
:102B30000D0004990968086104980899099A00F041
:102B4000B9F980B1FFE70498006C042807D1FFE7CA
:102B500004980168086840F400700860FFE70120ED
:102B60008DF8170009E09DF80C00049909680861C8
:102B7000FFE700208DF81700FFE79DF8170006B06B
:102B800080BD000080B584B0029001910092FFE703
:102B900002980068406900F004010020B0EB910F3A
:102BA00033D1FFE70298FFF72BFE20B1FFE70120AA
:102BB0008DF80F002DE00198013028B3FFE7FEF7F4
:102BC0008FFB0099401A0199884203D8FFE70198CA
:102BD000C8B9FFE7029900200863029A202182F811
:102BE0003D10029981F83E000299086C40F02000E7
:102BF0000864FFE70299002081F83C00FFE701200C
:102C00008DF80F0005E0FFE7C2E700208DF80F0008
:102C1000FFE79DF80F0004B080BD000080B586B0CE
:102C2000DDF820C0049003918DF80B200193FFE79D
:102C30009DF80E0001280CD1FFE704980068406958
:102C4000BDF80C100840401AB0FA80F0400900901E
:102C50000BE0049800688069BDF80C100840401A29
:102C6000B0FA80F040090090FFE700989DF80B1043
:102C700088422AD1FFE70198013028B3FFE7FEF729
:102C80002FFB0899401A0199884203D8FFE7019861
:102C9000C8B9FFE7049900200863049A202182F84C
:102CA0003D10049981F83E000499086C40F0200022
:102CB0000864FFE70499002081F83C00FFE7012049
:102CC0008DF8170005E0FFE7B2E700208DF8170048
:102CD000FFE79DF8170006B080BD000080B586B004
:102CE0000490039102920193FFE79DF80E000128E2
:102CF0000CD1FFE7049800684069BDF80C1008404B
:102D0000401AB0FA80F0400900900BE00498006887
:102D10008069BDF80C100840401AB0FA80F04009F4
:102D20000090FFE70098002858D1FFE7049800685A
:102D3000406900F480610120B0EB912F24D1FFE7BE
:102D400004980168086840F40070086004980168FD
:102D50006FF480604861049900200863049A202180
:102D600082F83D10049981F83E000499086C40F007
:102D700004000864FFE70499002081F83C00FFE7A5
:102D800001208DF817002DE00298013028B3FFE7ED
:102D9000FEF7A6FA0199401A0299884203D8FFE784
:102DA0000298C8B9FFE7049900200863049A20211B
:102DB00082F83D10049981F83E000499086C40F0B7
:102DC00020000864FFE70499002081F83C00FFE739
:102DD00001208DF8170005E0FFE786E700208DF859
:102DE0001700FFE79DF8170006B080BD80B584B0DE
:102DF000029001910092FFE702980068406900F09C
:102E000040010020B0EB911F4BD1FFE70298006812
:102E1000406900F010010120B0EB111F1CD1FFE749
:102E2000029801686FF01000486102990020086361
:102E3000029A202182F83D10029981F83E00029901
:102E4000086C0864FFE70299002081F83C00FFE766
:102E500001208DF80F0028E0FEF742FA0099401A91
:102E60000199884203D8FFE70198C8B9FFE70299A2
:102E700000200863029A202182F83D10029981F80F
:102E80003E000299086C40F020000864FFE70299B8
:102E9000002081F83C00FFE701208DF80F0004E0DE
:102EA000AAE700208DF80F00FFE79DF80F0004B09F
:102EB00080BD000080B584B0029001910092FFE7D0
:102EC000029800684069C1B20020B0EBD11F33D135
:102ED000FFE70298FFF794FC20B1FFE701208DF88F
:102EE0000F002DE00198013028B3FFE7FEF7F8F955
:102EF0000099401A0199884203D8FFE70198C8B9A0
:102F0000FFE7029900200863029A202182F83D1011
:102F1000029981F83E000299086C40F02000086494
:102F2000FFE70299002081F83C00FFE701208DF8BF
:102F30000F0005E0FFE7C3E700208DF80F00FFE773
:102F40009DF80F0004B080BD80B586B00590049157
:102F5000039240F6D413C2F200030193002058609C
:102F6000186068203B21062200F04EF901460198C6
:102F70008DF80B100278417841EA0221059A118000
:102F80008278C17841EA0221049A1180017940795E
:102F900040EA0120039908809DF80B0000F0010031
:102FA00006B080BD80B586B005900491039240F6CE
:102FB000D413C2F200030193002058601860682007
:102FC0004321062200F020F9014601988DF80B10EC
:102FD0000278417841EA0221059A11808278C1780D
:102FE00041EA0221049A11800179407940EA0120E6
:102FF000039908809DF80B0000F0010006B080BD29
:1030000070B594B040F6DC13C2F200038020187053
:1030100068206B21012200F01DF9FEF761F9129082
:10302000FFE7FEF75DF91299401A632801D8FFE720
:10303000F7E740F6DC13C2F2000301221A706820A1
:103040006B2100F007F9FEF74BF91190FFE7FEF74F
:1030500047F91199401A312801D8FFE7F7E740F600
:10306000D413C2F200030E9368200C907521012244
:1030700000F0CAF800200D9000F0A8F9FEF730F932
:1030800044F6D351C1F262010A91A0FB01108009FC
:1030900048F68901C8F68801A0FB0112510909010F
:1030A000A1EB5211A0EB81000B90FEF719F90A99E0
:1030B0000B9ADDF838C0DDF830E005460D98A5FB29
:1030C00001439B094FF47A7403FB14534EF2140529
:1030D000CEF200052D6801351095109D4EF21806B0
:1030E000CEF200063668AD1B6543109EB5FBF6F5C3
:1030F0000F950F9DA5FB0161890901FB14519CF8F7
:1031000000404AF6E175C0F60005EC46CCF81450D4
:10311000CCF81040CCF80CE04BF21A0EC0F6000EC2
:10312000CCF808E04BF2230EC0F6000ECCF804E019
:10313000CCF800104AF6E671C0F6000100F034FA4F
:103140000D9800F043F90E980078682804D0FFE746
:1031500001208DF84F0052E040F6DC13C2F200036C
:103160000793002009901870682008906C210122B4
:10317000069200F06FF8069A079B089818211970BC
:103180001B2100F067F8069A079B099908981970A7
:103190001C2100F05FF8069A079B0898802119709F
:1031A000372100F057F8069A079B0999089819707B
:1031B000382100F04FF8069A079B09990898197072
:1031C0006A2100F047F8069A079B089813211970A6
:1031D000192100F03FF8069A079B089803211970FF
:1031E0001A2100F037F8069A079B09990898197078
:1031F000232100F02FF809988DF84F00FFE79DF884
:103200004F0014B070BD000080B586B08DF8170077
:103210008DF816108DF8152004939DF817004000C6
:10322000411C9DF8162004989DF815C06B464FF080
:10323000FF3EC3F808E0C3F804C0186040F68010F1
:10324000C2F200000123FEF7A3F9002818BF0120F5
:1032500006B080BD80B586B08DF817008DF81610C9
:103260008DF8152004939DF8170041009DF8162055
:1032700004989DF815C06B464FF0FF3EC3F808E078
:10328000C3F804C0186040F68010C2F200000123A9
:10329000FEF794FB002818BF012006B080BD000097
:1032A00083B0FFE70020029043F63000C4F2020032
:1032B000016841F080010160006800F08000029028
:1032C0000298FFE7FFE70020019043F63000C4F2C8
:1032D0000200016841F001010160006800F0010096
:1032E00001900198FFE7FFE70020009043F63000CF
:1032F000C4F20200016841F002010160006800F0C0
:10330000020000900098FFE703B0704780B582B0DC
:1033100040F68010C2F20000019045F20041C4F274
:103320000001016048F2A061C0F20101416000218A
:103330008160C1604FF48042026141618161C1617D
:103340000162FDF7D3FF18B1FFE7FDF7E5FDFFE7E9
:1033500002B080BDFFE7FEE7FFE7FEE788B0079019
:1033600006910592079800F0070004900498C0F1B8
:103370000700052803D3FFE70420019004E0049828
:10338000C0F107000190FFE7019803900498043012
:10339000062803D8FFE70020009003E004980338D4
:1033A0000090FFE70098029006980399012202FA24
:1033B00001F101390840029B984005999A40013A71
:1033C0001140084308B070477047000080B586B0D0
:1033D0008DF81700FFE740F20000C2F200000190F4
:1033E00001980078532803D0FFE700F003FCFFE7C3
:1033F000FFE700200290FF208DF815009DF81700D0
:103400000F284AD8FFE79DF817104AF2B120C0F6FE
:103410000000405C8DF8160040F20000C2F200008F
:1034200018300490EFF311804FF0200181F31188E0
:1034300000900498406900F0030002280ED1FFE7D5
:103440009DF8170040F66011C2F200010870049860
:103450000DF11501022200F037FE1AE0049800F089
:103460001BFC0390039802280ED3FFE79DF817007A
:1034700040F66011C2F20001087004980DF11501C8
:10348000022200F093FE03E04FF0FF300290FFE7CE
:10349000FFE7009880F3118803E04FF0FF300290BF
:1034A000FFE7029806B080BD80B586B00590049114
:1034B0000392FFE740F20000C2F200000190019881
:1034C0000078532803D0FFE700F094FBFFE7FFE705
:1034D000EFF311804FF0200181F3118800900598DF
:1034E0000499039A00F008F80290009880F311887C
:1034F000029806B080BD000080B58AB0099008919E
:10350000079208980490099800EB400140F20000EF
:10351000C2F2000000EBC10018300390039840692C
:10352000029040B1FFE70298012819D0FFE7029806
:1035300002282CD032E0039800F0AEFB05900598ED
:103540000799884203D2FFE70020069007E007981A
:10355000069003980499079A00F028FEFFE720E000
:10356000039800F099FB059005980799884203D2CB
:10357000FFE70598019002E007980190FFE70198A6
:10358000069003980499069A00F010FE09E003984B
:103590000499079A00F098FD069002E0002006903A
:1035A000FFE706980AB080BD82B080B584B007936B
:1035B00006920390029106A80090039802996A4629
:1035C00000F00AF80190019804B0BDE8804002B014
:1035D000704700000000000080B5BEB03D903C91F7
:1035E0003B9211A8359080203690002037903D996D
:1035F00039913890FFE73C9800788DF8EB003C98C3
:1036000001303C909DF8EB0008B9FFE738E29DF8E7
:10361000EB00252840F02782FFE7002032900120B0
:103620003490FFE73C9800788DF8EB009DF8EB00B4
:103630002338014609910D2829D80999DFE801F0BE
:103640001F2727272727272717270727270F3298DE
:1036500040F0010032903C9801303C901AE03298E2
:1036600040F0020032903C9801303C9012E03298D9
:1036700040F0040032903C9801303C900AE03298CF
:1036800040F0080032903C9801303C9002E000206D
:103690003490FFE7FFE734980028C3D1FFE700200C
:1036A0003190FFE73C9800788DF8EB009DF8EB0037
:1036B000302805DBFFE79DF8EB003A2801DBFFE748
:1036C00010E03C9801303C90319800EB80019DF86F
:1036D000EB0000EB410030383190FFE7012000287B
:1036E000E0D1FFE7002033903C9800788DF8EB00A4
:1036F0009DF8EB002E2825D1FFE73C9801303C9047
:10370000FFE73C9800788DF8EB009DF8EB0030283F
:1037100005DBFFE79DF8EB003A2801DBFFE710E04F
:103720003C9801303C90339800EB80019DF8EB0011
:1037300000EB410030383390FFE701200028E0D152
:10374000FFE7FFE73C9800788DF8EB00FFE79DF876
:10375000EB006C2805D0FFE79DF8EB00682808D146
:10376000FFE73C9801303C903C9800788DF8EB00E6
:1037700000E004E0FFE701200028E8D1FFE79DF822
:10378000EB00253801460891532800F2678108991B
:10379000DFE811F0CF006401640164016401640199
:1037A00064016401640164016401640164016401F1
:1037B00064016401640164016401640164016401E1
:1037C00064016401640164016401640164016401D1
:1037D000640163006401D400640164016401640154
:1037E00064016401640164016401640164016401B1
:1037F0009F0064016401640164018B006401640141
:103800006401640164016401640164016401640190
:10381000540063006401D400640164016401640124
:1038200064016401640164016401BE006401640117
:103830009F0064017700640164018B003B9A10686B
:10384000011D11600068349034988DF843009DF894
:10385000431035A800F0FCFB01E13B9A1068011D04
:103860001160006834903499339B3198DDF8C8C0FA
:103870006A46C2F804C0106035A80A2200F02CFA8B
:10388000EDE03B9A1068011D116000683490349996
:10389000339B3198DDF8C8C06A46C2F804C0106096
:1038A00035A80A2200F0FEFAD9E03B9A1068011D03
:1038B0001160006834903499339B3198DDF8C8C0AA
:1038C0006A46C2F804C0106035A8102200F0EAFA77
:1038D000C5E03B9A1068011D116000680F90FFE77A
:1038E0000F9800788DF8EB000F9801300F909DF83D
:1038F000EB0008B9FFE70AE09DF8EB1035A800F0EF
:10390000A7FBFFE73898B0F1FF3FE9DCFFE7A6E04F
:103910003B9A1068011D1160006834903499684624
:10392000002242600823036035A8102200F0BAFA92
:1039300095E035A8252100F08BFB90E03B9A1068BC
:10394000073020F0070000F10801116090ED000B36
:1039500051EC100B05F0D8FC0E90339818B1FFE72E
:103960003398079002E003200790FFE707980D9037
:103970009DED0E0AB5EE400AF1EE10FA1ADAFFE7F5
:1039800035A82D2100F064FB0E9806F0BDFA41EC3D
:10399000100B9FED471B50EC111BC20F51EC100B8D
:1039A00062F3DF7141EC100B51EC100B05F0ACFC35
:1039B0000E90FFE79DED0E0ABDEEC00A8DED0C0ADC
:1039C0000C993198329B6A465360106035A8069076
:1039D0000A2205920023049300F07EF906982E2116
:1039E00000F036FB9DED0E0A9DED0C1AB8EEC11AE3
:1039F00030EE410A8DED0B0A0B9806F085FA41EC8A
:103A0000100B8DED020B0D9805F031FF41EC110B01
:103A10009FED290B04F0D8FCB0EE401AF0EE601ACE
:103A20009DED020B53EC112B51EC100B05F072FFC6
:103A300041EC100B51EC100B05F0EAFEDDF810C064
:103A4000059A014606980A910A990D9BEE46CEF812
:103A500004C0CEF800C000F03FF900E0FFE73C985A
:103A600001303C9005E09DF8EB1035A800F0F0FA2D
:103A7000FFE7FFE73898B0F1FF3F3FF7BCADFFE746
:103A8000389801280EDBFFE7379830B1FFE73D9803
:103A9000379A11A9FFF708FDFFE7379938980844CE
:103AA0003890FFE738983EB080BD00BF00BF00BF30
:103AB00000000000000000000000000000002440A2
:103AC0007047000080B582B0009000980138B0F1D6
:103AD000807F03D3FFE70120019019E000980138AF
:103AE0004EF21401CEF2000108604FF0FF300F21BA
:103AF00000F0AAFB4EF21801CEF20001002008608F
:103B00004EF21002CEF20002072111600190FFE791
:103B1000019802B080BD000080B5FEF79FF880BD1F
:103B200080B594B008A83021FCF7D5FC00200790A0
:103B30000690059004900390FFE70020029043F662
:103B40004000C4F20200016841F080510160006849
:103B500000F0805002900298FFE7FFE700200190FC
:103B600047F20000C4F20000016841F480410160A6
:103B7000006800F4804001900198FFE70120089060
:103B80004FF48030099002210E914FF480000F9085
:103B900004201090A82211921291139008A8FEF709
:103BA000C5FA18B1FFE7FDF7B7F9FFE70F2003905B
:103BB00002200490002005904FF4A05006904FF48E
:103BC0008050079003A80521FEF7F2F818B1FFE72F
:103BD000FDF7A2F9FFE714B080BD00004EF6885152
:103BE000CEF20001086840F47000086070470000E1
:103BF000FFE7FEE780B582B040F20000C2F20000AD
:103C000001900198A821FCF766FC01990320086146
:103C10000199486101984BF22B01C0F600018161C6
:103C2000019A40F2C000C2F20000D061019A4FF444
:103C300000601062019A00209062019A5062019A1D
:103C4000D062019A1166019A40F2B001C2F20001FD
:103C50005166019A10219166019908670199C86619
:103C600001994867BFF35F8F0090FFE700980F2826
:103C70000ED8FFE7009A4AF29020C0F60000801AA2
:103C8000C07B01998854FFE7009801300090EDE770
:103C9000BFF35F8F02B080BD84B0039003980069CA
:103CA00002900398C068019002980199884209D84F
:103CB000FFE7039880680199401A02990844013887
:103CC000009005E002990198C04308440090FFE786
:103CD000009804B07047000010B58CB0DDF83CC00F
:103CE000DDF838C00B900A91099208930A98B0F158
:103CF000FF3F04DCFFE70A984042059002E00A9883
:103D00000590FFE70598069001200790FFE70698C9
:103D10000999884209DBFFE70698099990FBF1F0C1
:103D20000690079801300790F1E7089807998842B4
:103D300003D9FFE708980790FFE70E9870B1FFE7F7
:103D40000A98002806D4FFE79DF83C0040070028A9
:103D500004D5FFE70E9801380E90FFE79DF83C0070
:103D60008007002803D5FFE7089858B3FFE79DF8C0
:103D70003C00C00730BBFFE70E9810B3FFE7FFE73A
:103D80000E990020049041B1FFE707990E9A002098
:103D9000914238BF01200490FFE70498C00778B132
:103DA000FFE70E9801380E900B98202100F050F993
:103DB0000B98C068B0F1FF3F01DCFFE700E0DFE7F0
:103DC000FFE7FFE70B98C068002869D4FFE70A986F
:103DD000B0F1FF3F08DCFFE70A9840420A900B98D9
:103DE0002D2100F035F90CE09DF83C00400700283B
:103DF00005D5FFE70B982B2100F02AF900E0FFE73B
:103E0000FFE70B98C068002849D4FFE79DF83C0005
:103E1000800700282ED5FFE79DF83C00C00748BB6F
:103E2000FFE7089830BBFFE70E9810B3FFE7FFE706
:103E30000E990020039041B1FFE707990E9A0020E8
:103E4000914238BF01200390FFE70398C00778B183
:103E5000FFE70E9801380E900B98302100F0F8F82B
:103E60000B98C068B0F1FF3F01DCFFE700E0DFE73F
:103E7000FFE7FFE70B98C06800280FD4FFE70B9817
:103E80000A99099A089BDDF838C00F9CEE46CEF8D7
:103E90000440CEF800C000F005F8FFE7FFE7FFE7B9
:103EA0000CB010BD80B58CB0DDF83CC0DDF838C07A
:103EB0000B900A91099208930A98059001200690A8
:103EC0000490FFE705980999884209D3FFE7059810
:103ED0000999B0FBF1F00590049801300490F1E7E6
:103EE00008980499884203D9FFE708980490FFE7EF
:103EF0009DF83C00C007C0BBFFE70E98A0B3FFE7EA
:103F00009DF83C008007002807D5FFE7089820B9F6
:103F1000FFE730208DF80F0003E020208DF80F0020
:103F2000FFE7FFE70E990020029041B1FFE70499F7
:103F30000E9A0020914238BF01200290FFE70298BC
:103F4000C00780B1FFE70E9801380E900B989DF8DE
:103F50000F1000F07DF80B98C068B0F1FF3F01DC56
:103F6000FFE700E0DEE7FFE7FFE70B98C068002807
:103F70006CD4FFE7FFE70898022804D3FFE708980E
:103F8000013808900BE00A980699B0FBF1F0079011
:103F900007980999884201D2FFE705E0FFE70999F0
:103FA000069848430690E6E7FFE70A980699B0FBB3
:103FB000F1F00790079806990A9A00FB11200A90E1
:103FC0000B98079A4AF2A121C0F60001895C00F023
:103FD0003FF80B98C068B0F1FF3F01DCFFE709E054
:103FE00009990698B0FBF1F00690FFE706980028C3
:103FF000DBD1FFE79DF83C00C00730B3FFE70E9828
:1040000010B3FFE7FFE70E990020019041B1FFE7F1
:1040100004990E9A0020914238BF01200190FFE7D9
:104020000198C00778B1FFE70E9801380E900B9801
:10403000202100F00DF80B98C068B0F1FF3F01DCC3
:10404000FFE700E0DFE7FFE7FFE7FFE70CB080BD39
:1040500080B584B003908DF80B10039880680190B0
:10406000019801300399496888420FD8FFE79DF80D
:104070000B0003990968019A88540198013003994B
:1040800088600399C8680130C860FFE703984168F9
:104090008068884215D1FFE703980168826800694B
:1040A000FFF702FA03998968884205D0FFE7039970
:1040B0004FF0FF30C86003E0039900208860FFE7FD
:1040C000FFE704B080BD000080B58AB00990089178
:1040D0000792002005900998C0680390FFE70998AF
:1040E0000069049004980399884206D9FFE704996F
:1040F0000398C0430844069008E009988168039833
:10410000049A801AC04308440690FFE7069809996C
:104110008968039A891A884203D2FFE706980190BA
:1041200005E0099880680399401A0190FFE701981B
:10413000069006980799884203D2FFE706980090F8
:1041400002E007980090FFE7009806900998406801
:1041500003990844029002980899069AFCF776F9A8
:10416000069905980844059006990898084408900F
:1041700006990798401A07900699039808440390F7
:10418000039809998968884203D1FFE700200390CA
:10419000FFE7BFF35F8F03980999C860FFE70798AF
:1041A00000289CD1FFE705980AB080BD80B588B093
:1041B0000790069105920798C06803900798806859
:1041C0000399401A029002980599884212D9FFE794
:1041D0000798406803990844019001980699059A48
:1041E000FCF734F9BFF35F8F0398059908440799EA
:1041F000C8601FE00298049007984068039908443B
:10420000019001980699049AFCF720F90598029903
:10421000401A049007984068019001980699029A04
:104220001144049AFCF712F9BFF35F8F04980799C1
:10423000C860FFE708B080BD4EF60C50CEF200001B
:104240000068C0F30220704782B08DF8070000912B
:104250009DF9070000280AD4FFE7009800019DF9A6
:1042600007104EF20042CEF2000288540BE0009894
:1042700000019DF8071001F00F014EF61452CEF226
:1042800000028854FFE702B07047000083B002903C
:10429000029800F0070000904EF60C51CEF200019B
:1042A0000868019001984FF6FF02104001900198B4
:1042B000009A40EA02200022C0F2FA521043019014
:1042C0000198086003B0704780B58AB009900891E2
:1042D00000200090069003A801F048F8009807908D
:1042E000FFE70798022873DCFFE70998079A50F860
:1042F0002200089951F82210401AFCF777F800EED6
:10430000100AB8EEC00A9FED341A80EE010A8DED56
:10431000020A079903A800EB810090ED000AB5EEB0
:10432000400AF1EE10FA29D0FFE79DED020A079945
:1043300003A800EB810090ED001A80EE010ABFEEA9
:10434000001A30EE010A8DED010A9DED010AB0EE72
:10435000C00A4BF22410C0F6000090ED091AB4EE2A
:10436000410AF1EE10FA08DDFFE70799012000FA93
:1043700001F1069808430690FFE724E09DED020A4C
:104380004BF22410C0F6000090ED071AB4EE410A7B
:10439000F1EE10FA0EDBFFE79DED020A4BF224105E
:1043A000C0F6000090ED081AB4EE410AF1EE10FAE2
:1043B00008DDFFE70799012000FA01F1069808439C
:1043C0000690FFE7FFE7FFE707980130079088E7CF
:1043D00006980AB080BD00BF0000804780B582B05B
:1043E00001900198C07800F0C0008DF8020001989B
:1043F000C07800F03F008DF8030001984078C007B6
:10440000F8B1FFE79DF80300C0088DF801009DF8A2
:10441000030000F0070001308DF8000040F668103E
:10442000C2F20000006858B1FFE740F66810C2F21F
:10443000000002689DF801009DF800109047FFE71A
:10444000FFE7019840780007002812D5FFE740F603
:104450006810C2F20000406850B1FFE740F66810F3
:10446000C2F2000041689DF8020080098847FFE71A
:10447000FFE7002002B080BD80B582B08DF8070054
:104480009DF8070068B1FFE720208DF80000282084
:104490008DF8010030208DF8020038208DF80300DF
:1044A00003E04FF0A3300090FFE740F69E20042188
:1044B0006A4603F01FFA02F0C1FB02B080BD0000A3
:1044C00080B586B0ADF8160002208DF80C00CA2029
:1044D0008DF80D00E3208DF80E0009208DF80F00F7
:1044E0006820042103AA03F005FAA3208DF80C002C
:1044F000BDF81600400600280AD5FFE7C0208DF859
:104500000D00C8208DF80E00C2208DF80F0007E0C6
:10451000A3208DF80D008DF80E008DF80F00FFE739
:10452000BDF8160010F4C07F0AD0FFE7C4208DF854
:104530001000CC208DF81100C6208DF8120007E085
:10454000A3208DF810008DF811008DF81200FFE700
:10455000A3208DF813008DF814008DF8150040F697
:10456000A7200A2103AA03F0C5F9BDF816008007A9
:1045700020B1FFE720208DF80C0003E0D8208DF853
:104580000C00FFE740F6B620012103AA03F0B2F9C0
:10459000BDF816008006002804D5FFE7012000F0D2
:1045A000E5F803E0002000F0E1F8FFE7BDF81600B1
:1045B00010F4C07F27D0FFE7BDF81600C005002823
:1045C0000DD5FFE7B2208DF80C008B208DF80D0083
:1045D000B6208DF80E009B208DF80F000CE0B02067
:1045E0008DF80C0080208DF80D00B4208DF80E00A1
:1045F00090208DF80F00FFE740F6A220042103AAC7
:1046000003F078F9FFE7BDF81600C00750B3FFE7E5
:10461000F8208DF80C004FF40B600121029103AAE1
:1046200003F068F907200190FA2100F037FD0198A6
:1046300000F0D8FC029800F00BFD642000F056FE5C
:104640004FF4FA7000F072FE4EF20930C0F2CA2048
:10465000C82100F05BFC282000F084FC0A2000F058
:10466000A1FC09E0D8208DF80C004FF40B6001216B
:1046700003AA03F03FF9FFE7BDF816008007002802
:1046800004D5FFE7D9208DF80C0003E0D8208DF881
:104690000C00FFE740F23D70012103AA03F02AF964
:1046A000BDF816004007002804D5FFE7012000F000
:1046B00093F803E0002000F08FF8FFE7BDF8160044
:1046C000C006002804D5FFE70120FFF7D5FE03E070
:1046D0000020FFF7D1FEFFE7BDF8160040F008000C
:1046E00040F66811C2F200010091488102F0A6FA7A
:1046F000009900208873BDF816004006002808D5F0
:10470000FFE740F66811C2F20001887B063088732B
:10471000FFE7BDF8160010F4C07F08D0FFE740F6B1
:104720006811C2F20001887B06308873FFE7BDF88C
:10473000160010F0140F08D0FFE740F66811C2F21F
:104740000001887B10308873FFE7BDF816008007F2
:1047500040B1FFE740F66811C2F20001887B0430E7
:104760008873FFE7002006B080BD000080B588B0E8
:104770008DF81B009DF81B00A8B1FFE75D208DF8A8
:10478000180049F6B400C3F20D5005904AF6B8205F
:10479000C8F6B35004904FF49760092104AA03F0BF
:1047A000A9F8079014E0C7208DF80C0048F6B00077
:1047B000CCF2C35002904AF6B820CAF6AA20019063
:1047C0004FF49760092101AA03F094F80790FFE7DE
:1047D000079808B080BD000080B582B08DF8070052
:1047E0009DF8070068B1FFE7C0208DF80000C220E7
:1047F0008DF80100C4208DF80200C6208DF803005A
:1048000003E04FF08B300090FFE740F69820042142
:104810006A4603F06FF802F011FA02B080BD0000A2
:1048200080B54AF2C121C0F6000140F6F6304FF4DF
:104830008062C82301F0DEFF80BD000080B594B027
:10484000DDF85CC0DDF858C01290119110920F9302
:1048500000208DF81B001699088040F66810C2F2FF
:104860000000807B179A07A902F0F4F820B1FFE757
:104870004FF0FF301390C7E040F66810C2F200001E
:10488000408910F0140F4AD0FFE7079800BA10993A
:104890000860089800BA10994860099800BA109901
:1048A00088600A9800BA1099C8609DF81B00103003
:1048B0008DF81B001098B0F9020002901098B0F922
:1048C000060003901098B0F90A0004901098B0F90F
:1048D0000E000590029A039B049905985B4302FB26
:1048E000023201FB012100FB001001900198B0F1A0
:1048F000706F05DBFFE70198B0F1885F09DDFFE726
:1049000002F09CF91699002008804FF0FF301390B8
:104910007AE01699088840F480700880FFE740F636
:104920006810C2F2000040894006002827D5FFE742
:104930009DF81B2007A988188A5C407840EA02206D
:10494000119A10809DF81B0008448278C07840EAD4
:104950000220119A50809DF81B000844017940798B
:1049600040EA0120119988809DF81B0006308DF8DF
:104970001B001699088840F008000880FFE740F601
:104980006810C2F20000408910F4C07F27D0FFE712
:104990009DF81B2007A988188A5C407840EA02200D
:1049A000129A10809DF81B0008448278C07840EA73
:1049B0000220129A50809DF81B000844017940792A
:1049C00040EA0120129988809DF81B0006308DF87E
:1049D0001B001699088840F070000880FFE740F639
:1049E0006810C2F200004089800738B1FFE79DF8E7
:1049F0001B1007A80844FFF7F1FCFFE70F9801F030
:104A000055F900201390FFE7139814B080BD000003
:104A100080B58CB00B900DF1060001F0A1FBBDF844
:104A20000600C0030021039102900B9940F6681024
:104A3000C2F20000028902F0030251F8221008912C
:104A400000894007002804D5FFE7089840420890F5
:104A5000FFE70B9940F66810C2F2000003890C22B0
:104A600002EA53028958099100898006002804D57A
:104A7000FFE7099840420990FFE70B9940F668105C
:104A8000C2F200000289C2F3811251F822100A9189
:104A90000089C005002804D5FFE70A9840420A9023
:104AA000FFE7089BD917029ADDF80CC0A3FB020EA2
:104AB00003FB0CE301FB0231800F40EA8100089008
:104AC000099BD917029ADDF80CC0A3FB020E03FB69
:104AD0000CE301FB0231800F40EA810009900A9B40
:104AE000D917029ADDF80CC0A3FB020E03FB0CE3FE
:104AF00001FB0231800F40EA81000A909DF82300FB
:104B00008DF81400BDF822008DF815000898000AF1
:104B10008DF8160008988DF817009DF827008DF87D
:104B20001800BDF826008DF819000998000A8DF8C4
:104B30001A0009988DF81B009DF82B008DF81C00B9
:104B4000BDF82A008DF81D000A98000A8DF81E0095
:104B50000A988DF81F004FF425700C2105AA02F069
:104B6000C9FE0CB080BD000080B588B0ADF81A0059
:104B70004AF6BB70CDF6DF7005904FF2AA10CDF665
:104B8000DF7004904FF2FE20CCF2AB400390BDF8F2
:104B90001A00C92804DBFFE74FF0FF30079032E02E
:104BA000BDF81A10C820B0FBF1F00138ADF80A00CA
:104BB0009DF80B008DF80200BDF80A008DF8030087
:104BC00040F2162002210DF1020202F093FE20B104
:104BD000FFE74FF0FF30079015E040F6C1200C21B1
:104BE00003AA02F087FE20B1FFE74FF0FF300790E5
:104BF00009E0BDF81A0040F66811C2F20001888190
:104C000000200790FFE7079808B080BD80B586B008
:104C10000490049940F66810C2F20000028902F084
:104C2000030251F82210019100894007002804D5A1
:104C3000FFE7019840420190FFE7049940F66810B1
:104C4000C2F2000003890C2202EA53028958029141
:104C500000898006002804D5FFE7029840420290B0
:104C6000FFE7049940F66810C2F200000289C2F31F
:104C7000811251F8221003910089C005002804D543
:104C8000FFE7039840420390FFE701984EF2093195
:104C9000C0F2CA2180FB0102800F40EA820001902D
:104CA000029880FB0102800F40EA82000290039884
:104CB00080FB0101800F40EA810003909DF807000E
:104CC0008DF80000BDF806008DF801000198000A7B
:104CD0008DF8020001988DF803004FF474700421E0
:104CE0006A4602F007FE20B1FFE74FF0FF30059063
:104CF00031E09DF80B008DF80000BDF80A008DF83A
:104D000001000298000A8DF8020002988DF8030055
:104D10004FF4757004216A4602F0ECFD20B1FFE704
:104D20004FF0FF30059016E09DF80F008DF8000061
:104D3000BDF80E008DF801000398000A8DF80200FE
:104D400003988DF803004FF4767004216A4602F050
:104D5000D1FD0590FFE7059806B080BD80B588B00D
:104D6000ADF81A006C208DF810004CF64C50ADF8E0
:104D70000E002C208DF80C004CF60C10ADF80A003B
:104D800076208DF8080045F23660ADF80600662002
:104D90008DF8040044F22660ADF80200BDF81A0058
:104DA00000F003010DF10E00415C8DF81610BDF806
:104DB0001A10C1F3C101415C8DF81710BDF81A102B
:104DC000C1F38111405C8DF81800BDF81A0000F0A5
:104DD00003010DF10A00415C8DF81210BDF81A10A4
:104DE000C1F3C101415C8DF81310BDF81A10C1F375
:104DF0008111405C8DF8140040F2264003210DF132
:104E0000160202F077FD20B1FFE74FF0FF30079068
:104E100079E040F22A4003210DF1120202F06AFD0E
:104E200020B1FFE74FF0FF3007906CE09DF80800DD
:104E30008DF81800BDF80600ADF816009DF80400C6
:104E40008DF81400BDF80200ADF81200BDF81A008C
:104E5000400700280DD5FFE79DF8160040F001003F
:104E60008DF816009DF8120040F001008DF8120038
:104E7000FFE7BDF81A00800600280DD5FFE79DF872
:104E8000170040F001008DF817009DF8130040F066
:104E900001008DF81300FFE7BDF81A00C0050028D7
:104EA0000DD5FFE79DF8180040F001008DF81800BF
:104EB0009DF8140040F001008DF81400FFE74FF456
:104EC000886003210DF1160202F014FD20B1FFE706
:104ED0004FF0FF30079016E040F2314003210DF112
:104EE000120202F007FD20B1FFE74FF0FF300790FC
:104EF00009E0BDF81A0040F66811C2F2000108810D
:104F000000200790FFE7079808B080BD80B584B007
:104F10000390ADF80A10039844F6D351C1F2620130
:104F200050FB01F1881100EBD170BDF80A10484325
:104F300000909DF803008DF80600BDF802008DF882
:104F400007000098000A8DF8080000988DF8090005
:104F50004FF4AE7004210DF1060202F0CBFC04B058
:104F600080BD000080B582B0ADF80600BDF8060037
:104F70004CF6CD41CCF6CC41A0FB01108008ADF839
:104F800006009DF807008DF80400BDF806008DF8B6
:104F900005004FF4AD70022101AA02F0ABFC02B093
:104FA00080BD000080B582B0ADF80600BDF80600F7
:104FB0004CF6CD41CCF6CC41A0FB01108008ADF8F9
:104FC00006009DF807008DF80400BDF806008DF876
:104FD00005004FF4AC70022101AA02F08BFC02B074
:104FE00080BD000080B582B08DF8070000208DF8EC
:104FF00006009DF80700C00738B1FFE79DF80600DE
:1050000040F030008DF80600FFE79DF807008007AC
:10501000002807D5FFE79DF8060040F00C008DF84A
:105020000600FFE79DF807004007002807D5FFE7C7
:105030009DF8060040F003008DF80600FFE74FF4EE
:10504000A47001210DF1060202F054FC02B080BDF3
:1050500080B582B08DF807009DF80700002804DCB9
:10506000FFE701208DF8070009E09DF807000528FB
:1050700004DBFFE704208DF80700FFE7FFE79DF85A
:10508000070001388DF8060040F24F1001210DF1A4
:10509000060202F02FFC02B080BD000080B588B08F
:1050A0008DF81B00ADF818109DF81B00400730B1BB
:1050B000FFE7BDF81800B0F5C86F04DDFFE74FF05B
:1050C000FF300790FCE0BDF8180000EE100AB8EEC3
:1050D000400A9FED7D1A80EE010A8DED030A0DF165
:1050E000130001F007F89DF8130002380146019102
:1050F0000E2800F26F800199DFE801F0086C216C46
:105100006C6C3A6C6C6C6C6C6C6C53009DED030AAF
:105110009FED741A20EE010ABDEEC00A10EE100ACF
:10512000ADF80A009DED030A9FED6F1A20EE010A0B
:10513000BDEEC00A10EE100AADF808004EE09DED7D
:10514000030A9FED661A20EE010ABDEEC00A10EEBA
:10515000100AADF80A009DED030A9FED611A20EEDA
:10516000010ABDEEC00A10EE100AADF8080035E0E5
:105170009DED030A9FED571A20EE010ABDEEC00A0D
:1051800010EE100AADF80A009DED030A9FED521AC9
:1051900020EE010ABDEEC00A10EE100AADF80800BC
:1051A0001CE09DED030A9FED491A20EE010ABDEEB9
:1051B000C00A10EE100AADF80A009DED030A9FED3B
:1051C000441A20EE010ABDEEC00A10EE100AADF836
:1051D000080003E04FF0FF30079071E09DF80B00EE
:1051E0008DF81400BDF80A008DF815009DF809002F
:1051F0008DF81600BDF808008DF817009DF81B000B
:10520000C007D0B1FFE74FF4EA70022105AA02F00F
:1052100071FB20B1FFE74FF0FF30079050E005A889
:10522000821C4FF49270022102F064FB20B1FFE770
:105230004FF0FF30079043E0FFE79DF81B00800729
:1052400000281AD5FFE74FF4EC70022105AA02F0FE
:1052500051FB20B1FFE74FF0FF30079030E005A889
:10526000821C4FF49470022102F044FB20B1FFE74E
:105270004FF0FF30079023E0FFE79DF81B00400749
:1052800000281AD5FFE74FF4EE70022105AA02F0BC
:1052900031FB20B1FFE74FF0FF30079010E005A889
:1052A000821C4FF49670022102F024FB20B1FFE72C
:1052B0004FF0FF30079003E0FFE700200790FFE783
:1052C000079808B080BD00BF0000484300000045BB
:1052D0000000C0440000804500004045000000463A
:1052E0000000C045000080460000404680B582B006
:1052F000ADF80600BDF806004CF6CD41CCF6CC4129
:10530000A0FB01108008ADF804009DF805008DF8A1
:105310000200BDF804008DF803004FF4EF70022185
:105320000DF1020202F0E6FA02B080BD80B582B053
:10533000ADF80600BDF806004CF6CD41CCF6CC41E8
:10534000A0FB01108008ADF804009DF805008DF861
:105350000200BDF804008DF803004FF4ED70022147
:105360000DF1020202F0C6FA02B080BD80B584B031
:10537000029040F6CC00C2F20000406800780D2197
:10538000042201ABFDF740FF18B1FFE707200390AF
:1053900068E09DF804009DF8071000F0E000C008E8
:1053A00001F0300140EA11108DF801009DF8050070
:1053B0009DF8071000F0E000C00801F00C0140EA81
:1053C00091008DF802009DF806109DF8070001F08D
:1053D000E00100F0030040EAD1008DF80300002056
:1053E0008DF80000FFE79DF80000022837DCFFE79A
:1053F0009DF800100DF10100405C38B9FFE70299FB
:105400009DF80020002041F8220022E002999DF83A
:10541000002041F27B40C3F6AE6041F82200FFE776
:105420009DF800200DF10101885C013888540006C8
:1054300070B1FFE702989DF8001000EB810090ED3D
:10544000000A9FED0A1A20EE010A80ED000AE7E744
:10545000FFE79DF8000001308DF80000C3E7002051
:105460000390FFE7039804B080BD00BF1D5A843F3E
:1054700080B598B0169015918DF8532001208DF8C5
:10548000470000208DF8480040F6CC00C2F2000032
:10549000016840680078897C02220DF14703FDF71E
:1054A000D9FE20B1FFE74FF0FF301790B2E2FBF7D3
:1054B00017FF0F90FFE7FBF713FF0F99401AC7285C
:1054C00001D8FFE7F7E700208DF8470040F6CC0051
:1054D000C2F20000016840680078C97B01220DF12A
:1054E0004703FDF7B7FE20B1FFE74FF0FF301790FD
:1054F00090E240F6CC00C2F20000016840680078FB
:10550000497901220DF14703FDF7A4FE20B1FFE721
:105510004FF0FF3017907DE240F6CC00C2F2000061
:10552000016840680078897C01220DF14703FDF78E
:1055300091FE20B1FFE74FF0FF3017906AE240F68E
:10554000CC00C2F20000016840680078C97D0122E9
:105550000DF14703FDF77EFE20B1FFE74FF0FF306E
:10556000179057E240F6CC00C2F200000168406894
:105570000078097901220DF14703FDF76BFE20B198
:10558000FFE74FF0FF30179044E20C208DF8470002
:1055900040F6CC00C2F2000001684068007809794A
:1055A00001220DF14703FDF755FE20B1FFE74FF053
:1055B000FF3017902EE2FBF793FE0E90FFE7FBF70C
:1055C0008FFE0E99401A0E2801D8FFE7F7E740F644
:1055D000CC00C2F20000816A497A8DF84710016858
:1055E00040680078897801220DF14703FDF732FE0B
:1055F00020B1FFE74FF0FF3017900BE240F6CC00F0
:10560000C2F20000816A097A8DF84710016840688B
:105610000078497801220DF14703FDF71BFE20B108
:10562000FFE74FF0FF301790F4E19DF8530058B1B9
:10563000FFE740F6CC00C2F20000806A807A40F0BA
:10564000E0008DF8470008E040F6CC00C2F2000010
:10565000806A807A8DF84700FFE740F6CC00C2F2FE
:105660000000016840680078897901220DF1470344
:10567000FDF7F0FD20B1FFE74FF0FF301790C9E1D3
:105680009DF8530058B1FFE740F6CC00C2F200008D
:10569000806AC07A40F0E0008DF8470007E04BF2E6
:1056A0002410C0F60000C07A8DF84700FFE740F6EE
:1056B000CC00C2F20000016840680078C97901227C
:1056C0000DF14703FDF7C6FD20B1FFE74FF0FF30B6
:1056D00017909FE19DF8530068B1FFE7FBF700FECC
:1056E0000D90FFE7FBF7FCFD0D99401AC72801D884
:1056F000FFE7F7E7FFE740208DF8470040F6CC00D2
:10570000C2F20000016840680078097901220DF1B9
:105710004703FDF79FFD20B1FFE74FF0FF301790E3
:1057200078E178208DF8470040F6CC00C2F2000006
:10573000016840680078497901220DF14703FDF7BF
:1057400089FD20B1FFE74FF0FF30179062E1FBF7D2
:10575000C7FD0C90FFE7FBF7C3FD0C99401A4BF215
:105760002411C0F600018989884201D2FFE7F2E7DF
:1057700000208DF8470040F6CC00C2F2000001681E
:1057800040680078497901220DF14703FDF762FD79
:1057900020B1FFE74FF0FF3017903BE140F6CC001F
:1057A000C2F20000016840680078897A02220DF197
:1057B0004703FDF729FD20B1FFE74FF0FF301790B9
:1057C00028E19DF847109DF8480040EA0120ADF817
:1057D0004200BDF842004AF6AB21CAF6AA21A0FB5E
:1057E0000110C0088DF846001699002088601699AF
:1057F0004860169908601599886015994860159950
:1058000008608DF84500FFE79DF845009DF84610BB
:1058100088426EDAFFE740F6CC00C2F20000016871
:1058200040680078C97A0C220DF14703FDF7ECFCC3
:1058300020B1FFE74FF0FF301790EBE09DF84710E5
:105840009DF8480040EA0120ADF82A009DF8491073
:105850009DF84A0040EA0120ADF82C009DF84B105D
:105860009DF84C0040EA0120ADF82E00BDF92A2039
:105870001599086810440860BDF92C2015994868EE
:1058800010444860BDF92E2015998868104488603E
:105890009DF84D109DF84E0040EA0120ADF824001F
:1058A0009DF84F109DF8500040EA0120ADF8260009
:1058B0009DF851109DF8520040EA0120ADF82800F3
:1058C000BDF924201699086810440860BDF9262007
:1058D0001699486810444860BDF9282016998868D0
:1058E00010448860FFE79DF8450001308DF84500C1
:1058F0008AE7169801900068C117090441EA10412F
:1059000000044BF22412C0F6000206921268002333
:105910000793FAF731FD079B9DF84620FAF72CFD17
:105920000199069A079B0860169802904068C11773
:10593000090441EA104100041268FAF71DFD079BB3
:105940009DF84620FAF718FD0299069A079B4860D1
:10595000169803908068C117090441EA10410004B9
:105960001268FAF709FD079B9DF84620FAF704FD37
:105970000399069A079B8860159804900068C117E0
:10598000090441EA104100045268FAF7F5FC079B4C
:105990009DF84620FAF7F0FC0499069A079B0860E8
:1059A000159805904068C117090441EA10410004A8
:1059B0005268FAF7E1FC079B9DF84620FAF7DCFCF9
:1059C0000599069A079B4860159808908068C1174A
:1059D000090441EA104100045268FAF7CDFC079B24
:1059E0009DF84620FAF7C8FC0899886015988068E9
:1059F000012806DBFFE715998868A0F580308860EC
:105A000005E01599886800F580308860FFE7002080
:105A10001790FFE7179818B080BD000080B58AB0D6
:105A2000089007910020059040F6CC00C2F20000DB
:105A3000406800780D2103220DF11103FDF7E4FB0E
:105A400018B1FFE707200990A7E09DF8110000F0CA
:105A50001F008DF811009DF8120000F01F008DF856
:105A600012009DF8130000F01F008DF813000020B5
:105A70000690FFE70698022800F38C80FFE708985D
:105A8000069A50F82200079951F82210401AFAF7A6
:105A9000ADFC00EE100AB8EEC00A9FED411A80EE90
:105AA000010A8DED020A06990DF11100405C0028F3
:105AB00046D0FFE74BF22410C0F6000090ED000A3C
:105AC000B8EE401A9FED370A80EE010A8DED030A09
:105AD000FFE7069A0DF11101885C01388854000631
